{
	"contracts/Gacha.sol": {
		"Assessment": {
			"abi": [
				{
					"inputs": [
						{
							"internalType": "uint256",
							"name": "initBalance",
							"type": "uint256"
						}
					],
					"stateMutability": "payable",
					"type": "constructor"
				},
				{
					"inputs": [
						{
							"internalType": "uint256",
							"name": "balance",
							"type": "uint256"
						}
					],
					"name": "InsufficientBalance",
					"type": "error"
				},
				{
					"inputs": [
						{
							"internalType": "uint256",
							"name": "totalCopies",
							"type": "uint256"
						}
					],
					"name": "InsufficientCharacters",
					"type": "error"
				},
				{
					"anonymous": false,
					"inputs": [],
					"name": "BurnCharacters",
					"type": "event"
				},
				{
					"anonymous": false,
					"inputs": [],
					"name": "GetFreeRoll",
					"type": "event"
				},
				{
					"anonymous": false,
					"inputs": [
						{
							"indexed": false,
							"internalType": "uint256",
							"name": "charValue",
							"type": "uint256"
						}
					],
					"name": "Roll",
					"type": "event"
				},
				{
					"inputs": [],
					"name": "balance",
					"outputs": [
						{
							"internalType": "uint256",
							"name": "",
							"type": "uint256"
						}
					],
					"stateMutability": "view",
					"type": "function"
				},
				{
					"inputs": [],
					"name": "burnCharacters",
					"outputs": [],
					"stateMutability": "payable",
					"type": "function"
				},
				{
					"inputs": [
						{
							"internalType": "uint256",
							"name": "",
							"type": "uint256"
						}
					],
					"name": "characters",
					"outputs": [
						{
							"internalType": "uint256",
							"name": "",
							"type": "uint256"
						}
					],
					"stateMutability": "view",
					"type": "function"
				},
				{
					"inputs": [],
					"name": "getBalance",
					"outputs": [
						{
							"internalType": "uint256",
							"name": "",
							"type": "uint256"
						}
					],
					"stateMutability": "view",
					"type": "function"
				},
				{
					"inputs": [],
					"name": "getFiveStarCopies",
					"outputs": [
						{
							"internalType": "uint256",
							"name": "",
							"type": "uint256"
						}
					],
					"stateMutability": "view",
					"type": "function"
				},
				{
					"inputs": [],
					"name": "getFourStarCopies",
					"outputs": [
						{
							"internalType": "uint256",
							"name": "",
							"type": "uint256"
						}
					],
					"stateMutability": "view",
					"type": "function"
				},
				{
					"inputs": [],
					"name": "getFreeRoll",
					"outputs": [],
					"stateMutability": "payable",
					"type": "function"
				},
				{
					"inputs": [],
					"name": "getSixStarCopies",
					"outputs": [
						{
							"internalType": "uint256",
							"name": "",
							"type": "uint256"
						}
					],
					"stateMutability": "view",
					"type": "function"
				},
				{
					"inputs": [],
					"name": "getThreeStarCopies",
					"outputs": [
						{
							"internalType": "uint256",
							"name": "",
							"type": "uint256"
						}
					],
					"stateMutability": "view",
					"type": "function"
				},
				{
					"inputs": [],
					"name": "getTwoStarCopies",
					"outputs": [
						{
							"internalType": "uint256",
							"name": "",
							"type": "uint256"
						}
					],
					"stateMutability": "view",
					"type": "function"
				},
				{
					"inputs": [],
					"name": "owner",
					"outputs": [
						{
							"internalType": "address payable",
							"name": "",
							"type": "address"
						}
					],
					"stateMutability": "view",
					"type": "function"
				},
				{
					"inputs": [
						{
							"internalType": "uint256",
							"name": "charValue",
							"type": "uint256"
						}
					],
					"name": "roll",
					"outputs": [],
					"stateMutability": "payable",
					"type": "function"
				}
			],
			"devdoc": {
				"kind": "dev",
				"methods": {},
				"version": 1
			},
			"evm": {
				"assembly": "    /* \"contracts/Gacha.sol\":97:3253  contract Assessment {... */\n  mstore(0x40, 0x80)\n    /* \"contracts/Gacha.sol\":337:450  constructor(uint initBalance) payable {... */\n  mload(0x40)\n  sub(codesize, bytecodeSize)\n  dup1\n  bytecodeSize\n  dup4\n  codecopy\n  dup2\n  dup2\n  add\n  0x40\n  mstore\n  dup2\n  add\n  swap1\n  tag_1\n  swap2\n  swap1\n  tag_2\n  jump\t// in\ntag_1:\n    /* \"contracts/Gacha.sol\":401:411  msg.sender */\n  caller\n    /* \"contracts/Gacha.sol\":385:390  owner */\n  0x00\n  dup1\n    /* \"contracts/Gacha.sol\":385:412  owner = payable(msg.sender) */\n  0x0100\n  exp\n  dup2\n  sload\n  dup2\n  0xffffffffffffffffffffffffffffffffffffffff\n  mul\n  not\n  and\n  swap1\n  dup4\n  0xffffffffffffffffffffffffffffffffffffffff\n  and\n  mul\n  or\n  swap1\n  sstore\n  pop\n    /* \"contracts/Gacha.sol\":432:443  initBalance */\n  dup1\n    /* \"contracts/Gacha.sol\":422:429  balance */\n  0x01\n    /* \"contracts/Gacha.sol\":422:443  balance = initBalance */\n  dup2\n  swap1\n  sstore\n  pop\n    /* \"contracts/Gacha.sol\":337:450  constructor(uint initBalance) payable {... */\n  pop\n    /* \"contracts/Gacha.sol\":97:3253  contract Assessment {... */\n  jump(tag_5)\n    /* \"#utility.yul\":88:205   */\ntag_7:\n    /* \"#utility.yul\":197:198   */\n  0x00\n    /* \"#utility.yul\":194:195   */\n  dup1\n    /* \"#utility.yul\":187:199   */\n  revert\n    /* \"#utility.yul\":334:411   */\ntag_9:\n    /* \"#utility.yul\":371:378   */\n  0x00\n    /* \"#utility.yul\":400:405   */\n  dup2\n    /* \"#utility.yul\":389:405   */\n  swap1\n  pop\n    /* \"#utility.yul\":334:411   */\n  swap2\n  swap1\n  pop\n  jump\t// out\n    /* \"#utility.yul\":417:539   */\ntag_10:\n    /* \"#utility.yul\":490:514   */\n  tag_18\n    /* \"#utility.yul\":508:513   */\n  dup2\n    /* \"#utility.yul\":490:514   */\n  tag_9\n  jump\t// in\ntag_18:\n    /* \"#utility.yul\":483:488   */\n  dup2\n    /* \"#utility.yul\":480:515   */\n  eq\n    /* \"#utility.yul\":470:533   */\n  tag_19\n  jumpi\n    /* \"#utility.yul\":529:530   */\n  0x00\n    /* \"#utility.yul\":526:527   */\n  dup1\n    /* \"#utility.yul\":519:531   */\n  revert\n    /* \"#utility.yul\":470:533   */\ntag_19:\n    /* \"#utility.yul\":417:539   */\n  pop\n  jump\t// out\n    /* \"#utility.yul\":545:688   */\ntag_11:\n    /* \"#utility.yul\":602:607   */\n  0x00\n    /* \"#utility.yul\":633:639   */\n  dup2\n    /* \"#utility.yul\":627:640   */\n  mload\n    /* \"#utility.yul\":618:640   */\n  swap1\n  pop\n    /* \"#utility.yul\":649:682   */\n  tag_21\n    /* \"#utility.yul\":676:681   */\n  dup2\n    /* \"#utility.yul\":649:682   */\n  tag_10\n  jump\t// in\ntag_21:\n    /* \"#utility.yul\":545:688   */\n  swap3\n  swap2\n  pop\n  pop\n  jump\t// out\n    /* \"#utility.yul\":694:1045   */\ntag_2:\n    /* \"#utility.yul\":764:770   */\n  0x00\n    /* \"#utility.yul\":813:815   */\n  0x20\n    /* \"#utility.yul\":801:810   */\n  dup3\n    /* \"#utility.yul\":792:799   */\n  dup5\n    /* \"#utility.yul\":788:811   */\n  sub\n    /* \"#utility.yul\":784:816   */\n  slt\n    /* \"#utility.yul\":781:900   */\n  iszero\n  tag_23\n  jumpi\n    /* \"#utility.yul\":819:898   */\n  tag_24\n  tag_7\n  jump\t// in\ntag_24:\n    /* \"#utility.yul\":781:900   */\ntag_23:\n    /* \"#utility.yul\":939:940   */\n  0x00\n    /* \"#utility.yul\":964:1028   */\n  tag_25\n    /* \"#utility.yul\":1020:1027   */\n  dup5\n    /* \"#utility.yul\":1011:1017   */\n  dup3\n    /* \"#utility.yul\":1000:1009   */\n  dup6\n    /* \"#utility.yul\":996:1018   */\n  add\n    /* \"#utility.yul\":964:1028   */\n  tag_11\n  jump\t// in\ntag_25:\n    /* \"#utility.yul\":954:1028   */\n  swap2\n  pop\n    /* \"#utility.yul\":910:1038   */\n  pop\n    /* \"#utility.yul\":694:1045   */\n  swap3\n  swap2\n  pop\n  pop\n  jump\t// out\n    /* \"contracts/Gacha.sol\":97:3253  contract Assessment {... */\ntag_5:\n  dataSize(sub_0)\n  dup1\n  dataOffset(sub_0)\n  0x00\n  codecopy\n  0x00\n  return\nstop\n\nsub_0: assembly {\n        /* \"contracts/Gacha.sol\":97:3253  contract Assessment {... */\n      mstore(0x40, 0x80)\n      jumpi(tag_1, lt(calldatasize, 0x04))\n      shr(0xe0, calldataload(0x00))\n      dup1\n      0x4810bc59\n      gt\n      tag_14\n      jumpi\n      dup1\n      0x4810bc59\n      eq\n      tag_8\n      jumpi\n      dup1\n      0x7780fecb\n      eq\n      tag_9\n      jumpi\n      dup1\n      0x8da5cb5b\n      eq\n      tag_10\n      jumpi\n      dup1\n      0xacc89bbe\n      eq\n      tag_11\n      jumpi\n      dup1\n      0xb69ef8a8\n      eq\n      tag_12\n      jumpi\n      dup1\n      0xfd1700eb\n      eq\n      tag_13\n      jumpi\n      jump(tag_1)\n    tag_14:\n      dup1\n      0x0de14c4d\n      eq\n      tag_2\n      jumpi\n      dup1\n      0x0f555bf7\n      eq\n      tag_3\n      jumpi\n      dup1\n      0x12065fe0\n      eq\n      tag_4\n      jumpi\n      dup1\n      0x1f7b4f30\n      eq\n      tag_5\n      jumpi\n      dup1\n      0x3d8ef528\n      eq\n      tag_6\n      jumpi\n      dup1\n      0x41a97a5b\n      eq\n      tag_7\n      jumpi\n    tag_1:\n      0x00\n      dup1\n      revert\n        /* \"contracts/Gacha.sol\":544:638  function getTwoStarCopies() public view returns(uint256) {... */\n    tag_2:\n      callvalue\n      dup1\n      iszero\n      tag_15\n      jumpi\n      0x00\n      dup1\n      revert\n    tag_15:\n      pop\n      tag_16\n      tag_17\n      jump\t// in\n    tag_16:\n      mload(0x40)\n      tag_18\n      swap2\n      swap1\n      tag_19\n      jump\t// in\n    tag_18:\n      mload(0x40)\n      dup1\n      swap2\n      sub\n      swap1\n      return\n        /* \"contracts/Gacha.sol\":744:839  function getFourStarCopies() public view returns(uint256) {... */\n    tag_3:\n      callvalue\n      dup1\n      iszero\n      tag_20\n      jumpi\n      0x00\n      dup1\n      revert\n    tag_20:\n      pop\n      tag_21\n      tag_22\n      jump\t// in\n    tag_21:\n      mload(0x40)\n      tag_23\n      swap2\n      swap1\n      tag_19\n      jump\t// in\n    tag_23:\n      mload(0x40)\n      dup1\n      swap2\n      sub\n      swap1\n      return\n        /* \"contracts/Gacha.sol\":456:538  function getBalance() public view returns(uint256) {... */\n    tag_4:\n      callvalue\n      dup1\n      iszero\n      tag_24\n      jumpi\n      0x00\n      dup1\n      revert\n    tag_24:\n      pop\n      tag_25\n      tag_26\n      jump\t// in\n    tag_25:\n      mload(0x40)\n      tag_27\n      swap2\n      swap1\n      tag_19\n      jump\t// in\n    tag_27:\n      mload(0x40)\n      dup1\n      swap2\n      sub\n      swap1\n      return\n        /* \"contracts/Gacha.sol\":1169:1949  function roll(uint charValue) public payable {... */\n    tag_5:\n      tag_28\n      0x04\n      dup1\n      calldatasize\n      sub\n      dup2\n      add\n      swap1\n      tag_29\n      swap2\n      swap1\n      tag_30\n      jump\t// in\n    tag_29:\n      tag_31\n      jump\t// in\n    tag_28:\n      stop\n        /* \"contracts/Gacha.sol\":844:939  function getFiveStarCopies() public view returns(uint256) {... */\n    tag_6:\n      callvalue\n      dup1\n      iszero\n      tag_32\n      jumpi\n      0x00\n      dup1\n      revert\n    tag_32:\n      pop\n      tag_33\n      tag_34\n      jump\t// in\n    tag_33:\n      mload(0x40)\n      tag_35\n      swap2\n      swap1\n      tag_19\n      jump\t// in\n    tag_35:\n      mload(0x40)\n      dup1\n      swap2\n      sub\n      swap1\n      return\n        /* \"contracts/Gacha.sol\":1955:2216  function getFreeRoll() public payable {... */\n    tag_7:\n      tag_36\n      tag_37\n      jump\t// in\n    tag_36:\n      stop\n        /* \"contracts/Gacha.sol\":185:227  mapping(uint => uint256) public characters */\n    tag_8:\n      callvalue\n      dup1\n      iszero\n      tag_38\n      jumpi\n      0x00\n      dup1\n      revert\n    tag_38:\n      pop\n      tag_39\n      0x04\n      dup1\n      calldatasize\n      sub\n      dup2\n      add\n      swap1\n      tag_40\n      swap2\n      swap1\n      tag_30\n      jump\t// in\n    tag_40:\n      tag_41\n      jump\t// in\n    tag_39:\n      mload(0x40)\n      tag_42\n      swap2\n      swap1\n      tag_19\n      jump\t// in\n    tag_42:\n      mload(0x40)\n      dup1\n      swap2\n      sub\n      swap1\n      return\n        /* \"contracts/Gacha.sol\":944:1038  function getSixStarCopies() public view returns(uint256) {... */\n    tag_9:\n      callvalue\n      dup1\n      iszero\n      tag_43\n      jumpi\n      0x00\n      dup1\n      revert\n    tag_43:\n      pop\n      tag_44\n      tag_45\n      jump\t// in\n    tag_44:\n      mload(0x40)\n      tag_46\n      swap2\n      swap1\n      tag_19\n      jump\t// in\n    tag_46:\n      mload(0x40)\n      dup1\n      swap2\n      sub\n      swap1\n      return\n        /* \"contracts/Gacha.sol\":123:151  address payable public owner */\n    tag_10:\n      callvalue\n      dup1\n      iszero\n      tag_47\n      jumpi\n      0x00\n      dup1\n      revert\n    tag_47:\n      pop\n      tag_48\n      tag_49\n      jump\t// in\n    tag_48:\n      mload(0x40)\n      tag_50\n      swap2\n      swap1\n      tag_51\n      jump\t// in\n    tag_50:\n      mload(0x40)\n      dup1\n      swap2\n      sub\n      swap1\n      return\n        /* \"contracts/Gacha.sol\":643:739  function getThreeStarCopies() public view returns(uint256) {... */\n    tag_11:\n      callvalue\n      dup1\n      iszero\n      tag_52\n      jumpi\n      0x00\n      dup1\n      revert\n    tag_52:\n      pop\n      tag_53\n      tag_54\n      jump\t// in\n    tag_53:\n      mload(0x40)\n      tag_55\n      swap2\n      swap1\n      tag_19\n      jump\t// in\n    tag_55:\n      mload(0x40)\n      dup1\n      swap2\n      sub\n      swap1\n      return\n        /* \"contracts/Gacha.sol\":157:179  uint256 public balance */\n    tag_12:\n      callvalue\n      dup1\n      iszero\n      tag_56\n      jumpi\n      0x00\n      dup1\n      revert\n    tag_56:\n      pop\n      tag_57\n      tag_58\n      jump\t// in\n    tag_57:\n      mload(0x40)\n      tag_59\n      swap2\n      swap1\n      tag_19\n      jump\t// in\n    tag_59:\n      mload(0x40)\n      dup1\n      swap2\n      sub\n      swap1\n      return\n        /* \"contracts/Gacha.sol\":2222:3251  function burnCharacters() public payable {... */\n    tag_13:\n      tag_60\n      tag_61\n      jump\t// in\n    tag_60:\n      stop\n        /* \"contracts/Gacha.sol\":544:638  function getTwoStarCopies() public view returns(uint256) {... */\n    tag_17:\n        /* \"contracts/Gacha.sol\":592:599  uint256 */\n      0x00\n        /* \"contracts/Gacha.sol\":618:628  characters */\n      0x02\n        /* \"contracts/Gacha.sol\":618:631  characters[2] */\n      0x00\n        /* \"contracts/Gacha.sol\":629:630  2 */\n      0x02\n        /* \"contracts/Gacha.sol\":618:631  characters[2] */\n      dup2\n      mstore\n      0x20\n      add\n      swap1\n      dup2\n      mstore\n      0x20\n      add\n      0x00\n      keccak256\n      sload\n        /* \"contracts/Gacha.sol\":611:631  return characters[2] */\n      swap1\n      pop\n        /* \"contracts/Gacha.sol\":544:638  function getTwoStarCopies() public view returns(uint256) {... */\n      swap1\n      jump\t// out\n        /* \"contracts/Gacha.sol\":744:839  function getFourStarCopies() public view returns(uint256) {... */\n    tag_22:\n        /* \"contracts/Gacha.sol\":793:800  uint256 */\n      0x00\n        /* \"contracts/Gacha.sol\":819:829  characters */\n      0x02\n        /* \"contracts/Gacha.sol\":819:832  characters[4] */\n      0x00\n        /* \"contracts/Gacha.sol\":830:831  4 */\n      0x04\n        /* \"contracts/Gacha.sol\":819:832  characters[4] */\n      dup2\n      mstore\n      0x20\n      add\n      swap1\n      dup2\n      mstore\n      0x20\n      add\n      0x00\n      keccak256\n      sload\n        /* \"contracts/Gacha.sol\":812:832  return characters[4] */\n      swap1\n      pop\n        /* \"contracts/Gacha.sol\":744:839  function getFourStarCopies() public view returns(uint256) {... */\n      swap1\n      jump\t// out\n        /* \"contracts/Gacha.sol\":456:538  function getBalance() public view returns(uint256) {... */\n    tag_26:\n        /* \"contracts/Gacha.sol\":498:505  uint256 */\n      0x00\n        /* \"contracts/Gacha.sol\":524:531  balance */\n      sload(0x01)\n        /* \"contracts/Gacha.sol\":517:531  return balance */\n      swap1\n      pop\n        /* \"contracts/Gacha.sol\":456:538  function getBalance() public view returns(uint256) {... */\n      swap1\n      jump\t// out\n        /* \"contracts/Gacha.sol\":1169:1949  function roll(uint charValue) public payable {... */\n    tag_31:\n        /* \"contracts/Gacha.sol\":1246:1251  owner */\n      0x00\n      dup1\n      sload\n      swap1\n      0x0100\n      exp\n      swap1\n      div\n      0xffffffffffffffffffffffffffffffffffffffff\n      and\n        /* \"contracts/Gacha.sol\":1232:1251  msg.sender == owner */\n      0xffffffffffffffffffffffffffffffffffffffff\n      and\n        /* \"contracts/Gacha.sol\":1232:1242  msg.sender */\n      caller\n        /* \"contracts/Gacha.sol\":1232:1251  msg.sender == owner */\n      0xffffffffffffffffffffffffffffffffffffffff\n      and\n      eq\n        /* \"contracts/Gacha.sol\":1224:1293  require(msg.sender == owner, \"You are not the owner of this account\") */\n      tag_66\n      jumpi\n      mload(0x40)\n      0x08c379a000000000000000000000000000000000000000000000000000000000\n      dup2\n      mstore\n      0x04\n      add\n      tag_67\n      swap1\n      tag_68\n      jump\t// in\n    tag_67:\n      mload(0x40)\n      dup1\n      swap2\n      sub\n      swap1\n      revert\n    tag_66:\n        /* \"contracts/Gacha.sol\":1303:1324  uint _previousBalance */\n      0x00\n        /* \"contracts/Gacha.sol\":1327:1334  balance */\n      sload(0x01)\n        /* \"contracts/Gacha.sol\":1303:1334  uint _previousBalance = balance */\n      swap1\n      pop\n        /* \"contracts/Gacha.sol\":1344:1372  uint _previousCharacterValue */\n      0x00\n        /* \"contracts/Gacha.sol\":1375:1385  characters */\n      0x02\n        /* \"contracts/Gacha.sol\":1375:1396  characters[charValue] */\n      0x00\n        /* \"contracts/Gacha.sol\":1386:1395  charValue */\n      dup5\n        /* \"contracts/Gacha.sol\":1375:1396  characters[charValue] */\n      dup2\n      mstore\n      0x20\n      add\n      swap1\n      dup2\n      mstore\n      0x20\n      add\n      0x00\n      keccak256\n      sload\n        /* \"contracts/Gacha.sol\":1344:1396  uint _previousCharacterValue = characters[charValue] */\n      swap1\n      pop\n        /* \"contracts/Gacha.sol\":1420:1421  1 */\n      0x01\n        /* \"contracts/Gacha.sol\":1410:1417  balance */\n      dup1\n      sload\n        /* \"contracts/Gacha.sol\":1410:1421  balance < 1 */\n      lt\n        /* \"contracts/Gacha.sol\":1406:1524  if (balance < 1) {... */\n      iszero\n      tag_69\n      jumpi\n        /* \"contracts/Gacha.sol\":1491:1498  balance */\n      sload(0x01)\n        /* \"contracts/Gacha.sol\":1444:1513  InsufficientBalance({... */\n      mload(0x40)\n      0x9266535100000000000000000000000000000000000000000000000000000000\n      dup2\n      mstore\n      0x04\n      add\n      tag_70\n      swap2\n      swap1\n      tag_19\n      jump\t// in\n    tag_70:\n      mload(0x40)\n      dup1\n      swap2\n      sub\n      swap1\n      revert\n        /* \"contracts/Gacha.sol\":1406:1524  if (balance < 1) {... */\n    tag_69:\n        /* \"contracts/Gacha.sol\":1572:1573  1 */\n      0x01\n        /* \"contracts/Gacha.sol\":1561:1568  balance */\n      dup1\n      0x00\n        /* \"contracts/Gacha.sol\":1561:1573  balance -= 1 */\n      dup3\n      dup3\n      sload\n      tag_71\n      swap2\n      swap1\n      tag_72\n      jump\t// in\n    tag_71:\n      swap3\n      pop\n      pop\n      dup2\n      swap1\n      sstore\n      pop\n        /* \"contracts/Gacha.sol\":1636:1637  1 */\n      0x01\n        /* \"contracts/Gacha.sol\":1611:1621  characters */\n      0x02\n        /* \"contracts/Gacha.sol\":1611:1632  characters[charValue] */\n      0x00\n        /* \"contracts/Gacha.sol\":1622:1631  charValue */\n      dup6\n        /* \"contracts/Gacha.sol\":1611:1632  characters[charValue] */\n      dup2\n      mstore\n      0x20\n      add\n      swap1\n      dup2\n      mstore\n      0x20\n      add\n      0x00\n      keccak256\n      0x00\n        /* \"contracts/Gacha.sol\":1611:1637  characters[charValue] += 1 */\n      dup3\n      dup3\n      sload\n      tag_73\n      swap2\n      swap1\n      tag_74\n      jump\t// in\n    tag_73:\n      swap3\n      pop\n      pop\n      dup2\n      swap1\n      sstore\n      pop\n        /* \"contracts/Gacha.sol\":1748:1749  1 */\n      0x01\n        /* \"contracts/Gacha.sol\":1729:1745  _previousBalance */\n      dup3\n        /* \"contracts/Gacha.sol\":1729:1749  _previousBalance - 1 */\n      tag_75\n      swap2\n      swap1\n      tag_72\n      jump\t// in\n    tag_75:\n        /* \"contracts/Gacha.sol\":1718:1725  balance */\n      sload(0x01)\n        /* \"contracts/Gacha.sol\":1718:1749  balance != _previousBalance - 1 */\n      eq\n      iszero\n        /* \"contracts/Gacha.sol\":1717:1809  (balance != _previousBalance - 1 ) || (characters[charValue] != _previousCharacterValue + 1) */\n      dup1\n      tag_76\n      jumpi\n      pop\n        /* \"contracts/Gacha.sol\":1807:1808  1 */\n      0x01\n        /* \"contracts/Gacha.sol\":1781:1804  _previousCharacterValue */\n      dup2\n        /* \"contracts/Gacha.sol\":1781:1808  _previousCharacterValue + 1 */\n      tag_77\n      swap2\n      swap1\n      tag_74\n      jump\t// in\n    tag_77:\n        /* \"contracts/Gacha.sol\":1756:1766  characters */\n      0x02\n        /* \"contracts/Gacha.sol\":1756:1777  characters[charValue] */\n      0x00\n        /* \"contracts/Gacha.sol\":1767:1776  charValue */\n      dup6\n        /* \"contracts/Gacha.sol\":1756:1777  characters[charValue] */\n      dup2\n      mstore\n      0x20\n      add\n      swap1\n      dup2\n      mstore\n      0x20\n      add\n      0x00\n      keccak256\n      sload\n        /* \"contracts/Gacha.sol\":1756:1808  characters[charValue] != _previousCharacterValue + 1 */\n      eq\n      iszero\n        /* \"contracts/Gacha.sol\":1717:1809  (balance != _previousBalance - 1 ) || (characters[charValue] != _previousCharacterValue + 1) */\n    tag_76:\n        /* \"contracts/Gacha.sol\":1713:1886  if ((balance != _previousBalance - 1 ) || (characters[charValue] != _previousCharacterValue + 1) ) {... */\n      iszero\n      tag_78\n      jumpi\n        /* \"contracts/Gacha.sol\":1826:1875  revert(\"Erroneous change in state... reverting.\") */\n      mload(0x40)\n      0x08c379a000000000000000000000000000000000000000000000000000000000\n      dup2\n      mstore\n      0x04\n      add\n      tag_79\n      swap1\n      tag_80\n      jump\t// in\n    tag_79:\n      mload(0x40)\n      dup1\n      swap2\n      sub\n      swap1\n      revert\n        /* \"contracts/Gacha.sol\":1713:1886  if ((balance != _previousBalance - 1 ) || (characters[charValue] != _previousCharacterValue + 1) ) {... */\n    tag_78:\n        /* \"contracts/Gacha.sol\":1927:1942  Roll(charValue) */\n      0xb682b75453cfd68407d152acdf75c3ae0088182f59191a7006c09071adad76a3\n        /* \"contracts/Gacha.sol\":1932:1941  charValue */\n      dup4\n        /* \"contracts/Gacha.sol\":1927:1942  Roll(charValue) */\n      mload(0x40)\n      tag_81\n      swap2\n      swap1\n      tag_19\n      jump\t// in\n    tag_81:\n      mload(0x40)\n      dup1\n      swap2\n      sub\n      swap1\n      log1\n        /* \"contracts/Gacha.sol\":1214:1949  {... */\n      pop\n      pop\n        /* \"contracts/Gacha.sol\":1169:1949  function roll(uint charValue) public payable {... */\n      pop\n      jump\t// out\n        /* \"contracts/Gacha.sol\":844:939  function getFiveStarCopies() public view returns(uint256) {... */\n    tag_34:\n        /* \"contracts/Gacha.sol\":893:900  uint256 */\n      0x00\n        /* \"contracts/Gacha.sol\":919:929  characters */\n      0x02\n        /* \"contracts/Gacha.sol\":919:932  characters[5] */\n      0x00\n        /* \"contracts/Gacha.sol\":930:931  5 */\n      0x05\n        /* \"contracts/Gacha.sol\":919:932  characters[5] */\n      dup2\n      mstore\n      0x20\n      add\n      swap1\n      dup2\n      mstore\n      0x20\n      add\n      0x00\n      keccak256\n      sload\n        /* \"contracts/Gacha.sol\":912:932  return characters[5] */\n      swap1\n      pop\n        /* \"contracts/Gacha.sol\":844:939  function getFiveStarCopies() public view returns(uint256) {... */\n      swap1\n      jump\t// out\n        /* \"contracts/Gacha.sol\":1955:2216  function getFreeRoll() public payable {... */\n    tag_37:\n        /* \"contracts/Gacha.sol\":2025:2030  owner */\n      0x00\n      dup1\n      sload\n      swap1\n      0x0100\n      exp\n      swap1\n      div\n      0xffffffffffffffffffffffffffffffffffffffff\n      and\n        /* \"contracts/Gacha.sol\":2011:2030  msg.sender == owner */\n      0xffffffffffffffffffffffffffffffffffffffff\n      and\n        /* \"contracts/Gacha.sol\":2011:2021  msg.sender */\n      caller\n        /* \"contracts/Gacha.sol\":2011:2030  msg.sender == owner */\n      0xffffffffffffffffffffffffffffffffffffffff\n      and\n      eq\n        /* \"contracts/Gacha.sol\":2003:2072  require(msg.sender == owner, \"You are not the owner of this account\") */\n      tag_84\n      jumpi\n      mload(0x40)\n      0x08c379a000000000000000000000000000000000000000000000000000000000\n      dup2\n      mstore\n      0x04\n      add\n      tag_85\n      swap1\n      tag_68\n      jump\t// in\n    tag_85:\n      mload(0x40)\n      dup1\n      swap2\n      sub\n      swap1\n      revert\n    tag_84:\n        /* \"contracts/Gacha.sol\":2082:2103  uint _previousBalance */\n      0x00\n        /* \"contracts/Gacha.sol\":2106:2113  balance */\n      sload(0x01)\n        /* \"contracts/Gacha.sol\":2082:2113  uint _previousBalance = balance */\n      swap1\n      pop\n        /* \"contracts/Gacha.sol\":2158:2159  1 */\n      0x01\n        /* \"contracts/Gacha.sol\":2147:2154  balance */\n      dup1\n      0x00\n        /* \"contracts/Gacha.sol\":2147:2159  balance += 1 */\n      dup3\n      dup3\n      sload\n      tag_86\n      swap2\n      swap1\n      tag_74\n      jump\t// in\n    tag_86:\n      swap3\n      pop\n      pop\n      dup2\n      swap1\n      sstore\n      pop\n        /* \"contracts/Gacha.sol\":2207:2208  1 */\n      0x01\n        /* \"contracts/Gacha.sol\":2188:2204  _previousBalance */\n      dup2\n        /* \"contracts/Gacha.sol\":2188:2208  _previousBalance + 1 */\n      tag_87\n      swap2\n      swap1\n      tag_74\n      jump\t// in\n    tag_87:\n        /* \"contracts/Gacha.sol\":2177:2184  balance */\n      sload(0x01)\n        /* \"contracts/Gacha.sol\":2177:2208  balance == _previousBalance + 1 */\n      eq\n        /* \"contracts/Gacha.sol\":2170:2209  assert(balance == _previousBalance + 1) */\n      tag_88\n      jumpi\n      tag_89\n      tag_90\n      jump\t// in\n    tag_89:\n    tag_88:\n        /* \"contracts/Gacha.sol\":1993:2216  {... */\n      pop\n        /* \"contracts/Gacha.sol\":1955:2216  function getFreeRoll() public payable {... */\n      jump\t// out\n        /* \"contracts/Gacha.sol\":185:227  mapping(uint => uint256) public characters */\n    tag_41:\n      mstore(0x20, 0x02)\n      dup1\n      0x00\n      mstore\n      keccak256(0x00, 0x40)\n      0x00\n      swap2\n      pop\n      swap1\n      pop\n      sload\n      dup2\n      jump\t// out\n        /* \"contracts/Gacha.sol\":944:1038  function getSixStarCopies() public view returns(uint256) {... */\n    tag_45:\n        /* \"contracts/Gacha.sol\":992:999  uint256 */\n      0x00\n        /* \"contracts/Gacha.sol\":1018:1028  characters */\n      0x02\n        /* \"contracts/Gacha.sol\":1018:1031  characters[6] */\n      0x00\n        /* \"contracts/Gacha.sol\":1029:1030  6 */\n      0x06\n        /* \"contracts/Gacha.sol\":1018:1031  characters[6] */\n      dup2\n      mstore\n      0x20\n      add\n      swap1\n      dup2\n      mstore\n      0x20\n      add\n      0x00\n      keccak256\n      sload\n        /* \"contracts/Gacha.sol\":1011:1031  return characters[6] */\n      swap1\n      pop\n        /* \"contracts/Gacha.sol\":944:1038  function getSixStarCopies() public view returns(uint256) {... */\n      swap1\n      jump\t// out\n        /* \"contracts/Gacha.sol\":123:151  address payable public owner */\n    tag_49:\n      0x00\n      dup1\n      sload\n      swap1\n      0x0100\n      exp\n      swap1\n      div\n      0xffffffffffffffffffffffffffffffffffffffff\n      and\n      dup2\n      jump\t// out\n        /* \"contracts/Gacha.sol\":643:739  function getThreeStarCopies() public view returns(uint256) {... */\n    tag_54:\n        /* \"contracts/Gacha.sol\":693:700  uint256 */\n      0x00\n        /* \"contracts/Gacha.sol\":719:729  characters */\n      0x02\n        /* \"contracts/Gacha.sol\":719:732  characters[3] */\n      0x00\n        /* \"contracts/Gacha.sol\":730:731  3 */\n      0x03\n        /* \"contracts/Gacha.sol\":719:732  characters[3] */\n      dup2\n      mstore\n      0x20\n      add\n      swap1\n      dup2\n      mstore\n      0x20\n      add\n      0x00\n      keccak256\n      sload\n        /* \"contracts/Gacha.sol\":712:732  return characters[3] */\n      swap1\n      pop\n        /* \"contracts/Gacha.sol\":643:739  function getThreeStarCopies() public view returns(uint256) {... */\n      swap1\n      jump\t// out\n        /* \"contracts/Gacha.sol\":157:179  uint256 public balance */\n    tag_58:\n      sload(0x01)\n      dup2\n      jump\t// out\n        /* \"contracts/Gacha.sol\":2222:3251  function burnCharacters() public payable {... */\n    tag_61:\n        /* \"contracts/Gacha.sol\":2295:2300  owner */\n      0x00\n      dup1\n      sload\n      swap1\n      0x0100\n      exp\n      swap1\n      div\n      0xffffffffffffffffffffffffffffffffffffffff\n      and\n        /* \"contracts/Gacha.sol\":2281:2300  msg.sender == owner */\n      0xffffffffffffffffffffffffffffffffffffffff\n      and\n        /* \"contracts/Gacha.sol\":2281:2291  msg.sender */\n      caller\n        /* \"contracts/Gacha.sol\":2281:2300  msg.sender == owner */\n      0xffffffffffffffffffffffffffffffffffffffff\n      and\n      eq\n        /* \"contracts/Gacha.sol\":2273:2342  require(msg.sender == owner, \"You are not the owner of this account\") */\n      tag_94\n      jumpi\n      mload(0x40)\n      0x08c379a000000000000000000000000000000000000000000000000000000000\n      dup2\n      mstore\n      0x04\n      add\n      tag_95\n      swap1\n      tag_68\n      jump\t// in\n    tag_95:\n      mload(0x40)\n      dup1\n      swap2\n      sub\n      swap1\n      revert\n    tag_94:\n        /* \"contracts/Gacha.sol\":2352:2373  uint _previousBalance */\n      0x00\n        /* \"contracts/Gacha.sol\":2376:2383  balance */\n      sload(0x01)\n        /* \"contracts/Gacha.sol\":2352:2383  uint _previousBalance = balance */\n      swap1\n      pop\n        /* \"contracts/Gacha.sol\":2440:2460  uint totalCharacters */\n      0x00\n        /* \"contracts/Gacha.sol\":2527:2537  characters */\n      0x02\n        /* \"contracts/Gacha.sol\":2527:2540  characters[6] */\n      0x00\n        /* \"contracts/Gacha.sol\":2538:2539  6 */\n      0x06\n        /* \"contracts/Gacha.sol\":2527:2540  characters[6] */\n      dup2\n      mstore\n      0x20\n      add\n      swap1\n      dup2\n      mstore\n      0x20\n      add\n      0x00\n      keccak256\n      sload\n        /* \"contracts/Gacha.sol\":2511:2521  characters */\n      0x02\n        /* \"contracts/Gacha.sol\":2511:2524  characters[5] */\n      0x00\n        /* \"contracts/Gacha.sol\":2522:2523  5 */\n      0x05\n        /* \"contracts/Gacha.sol\":2511:2524  characters[5] */\n      dup2\n      mstore\n      0x20\n      add\n      swap1\n      dup2\n      mstore\n      0x20\n      add\n      0x00\n      keccak256\n      sload\n        /* \"contracts/Gacha.sol\":2495:2505  characters */\n      0x02\n        /* \"contracts/Gacha.sol\":2495:2508  characters[4] */\n      0x00\n        /* \"contracts/Gacha.sol\":2506:2507  4 */\n      0x04\n        /* \"contracts/Gacha.sol\":2495:2508  characters[4] */\n      dup2\n      mstore\n      0x20\n      add\n      swap1\n      dup2\n      mstore\n      0x20\n      add\n      0x00\n      keccak256\n      sload\n        /* \"contracts/Gacha.sol\":2479:2489  characters */\n      0x02\n        /* \"contracts/Gacha.sol\":2479:2492  characters[3] */\n      0x00\n        /* \"contracts/Gacha.sol\":2490:2491  3 */\n      0x03\n        /* \"contracts/Gacha.sol\":2479:2492  characters[3] */\n      dup2\n      mstore\n      0x20\n      add\n      swap1\n      dup2\n      mstore\n      0x20\n      add\n      0x00\n      keccak256\n      sload\n        /* \"contracts/Gacha.sol\":2463:2473  characters */\n      0x02\n        /* \"contracts/Gacha.sol\":2463:2476  characters[2] */\n      0x00\n        /* \"contracts/Gacha.sol\":2474:2475  2 */\n      0x02\n        /* \"contracts/Gacha.sol\":2463:2476  characters[2] */\n      dup2\n      mstore\n      0x20\n      add\n      swap1\n      dup2\n      mstore\n      0x20\n      add\n      0x00\n      keccak256\n      sload\n        /* \"contracts/Gacha.sol\":2463:2492  characters[2] + characters[3] */\n      tag_96\n      swap2\n      swap1\n      tag_74\n      jump\t// in\n    tag_96:\n        /* \"contracts/Gacha.sol\":2463:2508  characters[2] + characters[3] + characters[4] */\n      tag_97\n      swap2\n      swap1\n      tag_74\n      jump\t// in\n    tag_97:\n        /* \"contracts/Gacha.sol\":2463:2524  characters[2] + characters[3] + characters[4] + characters[5] */\n      tag_98\n      swap2\n      swap1\n      tag_74\n      jump\t// in\n    tag_98:\n        /* \"contracts/Gacha.sol\":2463:2540  characters[2] + characters[3] + characters[4] + characters[5] + characters[6] */\n      tag_99\n      swap2\n      swap1\n      tag_74\n      jump\t// in\n    tag_99:\n        /* \"contracts/Gacha.sol\":2440:2540  uint totalCharacters = characters[2] + characters[3] + characters[4] + characters[5] + characters[6] */\n      swap1\n      pop\n        /* \"contracts/Gacha.sol\":2614:2624  uint rolls */\n      0x00\n        /* \"contracts/Gacha.sol\":2645:2647  10 */\n      0x0a\n        /* \"contracts/Gacha.sol\":2627:2642  totalCharacters */\n      dup3\n        /* \"contracts/Gacha.sol\":2627:2647  totalCharacters / 10 */\n      tag_100\n      swap2\n      swap1\n      tag_101\n      jump\t// in\n    tag_100:\n        /* \"contracts/Gacha.sol\":2614:2647  uint rolls = totalCharacters / 10 */\n      swap1\n      pop\n        /* \"contracts/Gacha.sol\":2670:2671  1 */\n      0x01\n        /* \"contracts/Gacha.sol\":2662:2667  rolls */\n      dup2\n        /* \"contracts/Gacha.sol\":2662:2671  rolls < 1 */\n      lt\n        /* \"contracts/Gacha.sol\":2658:2759  if (rolls < 1) {... */\n      iszero\n      tag_102\n      jumpi\n        /* \"contracts/Gacha.sol\":2731:2746  totalCharacters */\n      dup2\n        /* \"contracts/Gacha.sol\":2694:2748  InsufficientCharacters({totalCopies: totalCharacters}) */\n      mload(0x40)\n      0x567d34ef00000000000000000000000000000000000000000000000000000000\n      dup2\n      mstore\n      0x04\n      add\n      tag_103\n      swap2\n      swap1\n      tag_19\n      jump\t// in\n    tag_103:\n      mload(0x40)\n      dup1\n      swap2\n      sub\n      swap1\n      revert\n        /* \"contracts/Gacha.sol\":2658:2759  if (rolls < 1) {... */\n    tag_102:\n        /* \"contracts/Gacha.sol\":2818:2819  0 */\n      0x00\n        /* \"contracts/Gacha.sol\":2802:2812  characters */\n      0x02\n        /* \"contracts/Gacha.sol\":2802:2815  characters[2] */\n      0x00\n        /* \"contracts/Gacha.sol\":2813:2814  2 */\n      0x02\n        /* \"contracts/Gacha.sol\":2802:2815  characters[2] */\n      dup2\n      mstore\n      0x20\n      add\n      swap1\n      dup2\n      mstore\n      0x20\n      add\n      0x00\n      keccak256\n        /* \"contracts/Gacha.sol\":2802:2819  characters[2] = 0 */\n      dup2\n      swap1\n      sstore\n      pop\n        /* \"contracts/Gacha.sol\":2845:2846  0 */\n      0x00\n        /* \"contracts/Gacha.sol\":2829:2839  characters */\n      0x02\n        /* \"contracts/Gacha.sol\":2829:2842  characters[3] */\n      0x00\n        /* \"contracts/Gacha.sol\":2840:2841  3 */\n      0x03\n        /* \"contracts/Gacha.sol\":2829:2842  characters[3] */\n      dup2\n      mstore\n      0x20\n      add\n      swap1\n      dup2\n      mstore\n      0x20\n      add\n      0x00\n      keccak256\n        /* \"contracts/Gacha.sol\":2829:2846  characters[3] = 0 */\n      dup2\n      swap1\n      sstore\n      pop\n        /* \"contracts/Gacha.sol\":2872:2873  0 */\n      0x00\n        /* \"contracts/Gacha.sol\":2856:2866  characters */\n      0x02\n        /* \"contracts/Gacha.sol\":2856:2869  characters[4] */\n      0x00\n        /* \"contracts/Gacha.sol\":2867:2868  4 */\n      0x04\n        /* \"contracts/Gacha.sol\":2856:2869  characters[4] */\n      dup2\n      mstore\n      0x20\n      add\n      swap1\n      dup2\n      mstore\n      0x20\n      add\n      0x00\n      keccak256\n        /* \"contracts/Gacha.sol\":2856:2873  characters[4] = 0 */\n      dup2\n      swap1\n      sstore\n      pop\n        /* \"contracts/Gacha.sol\":2899:2900  0 */\n      0x00\n        /* \"contracts/Gacha.sol\":2883:2893  characters */\n      0x02\n        /* \"contracts/Gacha.sol\":2883:2896  characters[5] */\n      0x00\n        /* \"contracts/Gacha.sol\":2894:2895  5 */\n      0x05\n        /* \"contracts/Gacha.sol\":2883:2896  characters[5] */\n      dup2\n      mstore\n      0x20\n      add\n      swap1\n      dup2\n      mstore\n      0x20\n      add\n      0x00\n      keccak256\n        /* \"contracts/Gacha.sol\":2883:2900  characters[5] = 0 */\n      dup2\n      swap1\n      sstore\n      pop\n        /* \"contracts/Gacha.sol\":2926:2927  0 */\n      0x00\n        /* \"contracts/Gacha.sol\":2910:2920  characters */\n      0x02\n        /* \"contracts/Gacha.sol\":2910:2923  characters[6] */\n      0x00\n        /* \"contracts/Gacha.sol\":2921:2922  6 */\n      0x06\n        /* \"contracts/Gacha.sol\":2910:2923  characters[6] */\n      dup2\n      mstore\n      0x20\n      add\n      swap1\n      dup2\n      mstore\n      0x20\n      add\n      0x00\n      keccak256\n        /* \"contracts/Gacha.sol\":2910:2927  characters[6] = 0 */\n      dup2\n      swap1\n      sstore\n      pop\n        /* \"contracts/Gacha.sol\":2973:2978  rolls */\n      dup1\n        /* \"contracts/Gacha.sol\":2962:2969  balance */\n      0x01\n      0x00\n        /* \"contracts/Gacha.sol\":2962:2978  balance += rolls */\n      dup3\n      dup3\n      sload\n      tag_104\n      swap2\n      swap1\n      tag_74\n      jump\t// in\n    tag_104:\n      swap3\n      pop\n      pop\n      dup2\n      swap1\n      sstore\n      pop\n        /* \"contracts/Gacha.sol\":3026:3031  rolls */\n      dup1\n        /* \"contracts/Gacha.sol\":3007:3023  _previousBalance */\n      dup4\n        /* \"contracts/Gacha.sol\":3007:3031  _previousBalance + rolls */\n      tag_105\n      swap2\n      swap1\n      tag_74\n      jump\t// in\n    tag_105:\n        /* \"contracts/Gacha.sol\":2996:3003  balance */\n      sload(0x01)\n        /* \"contracts/Gacha.sol\":2996:3031  balance == _previousBalance + rolls */\n      eq\n        /* \"contracts/Gacha.sol\":2989:3032  assert(balance == _previousBalance + rolls) */\n      tag_106\n      jumpi\n      tag_107\n      tag_90\n      jump\t// in\n    tag_107:\n    tag_106:\n        /* \"contracts/Gacha.sol\":3066:3067  0 */\n      0x00\n        /* \"contracts/Gacha.sol\":3049:3059  characters */\n      0x02\n        /* \"contracts/Gacha.sol\":3049:3062  characters[2] */\n      0x00\n        /* \"contracts/Gacha.sol\":3060:3061  2 */\n      0x02\n        /* \"contracts/Gacha.sol\":3049:3062  characters[2] */\n      dup2\n      mstore\n      0x20\n      add\n      swap1\n      dup2\n      mstore\n      0x20\n      add\n      0x00\n      keccak256\n      sload\n        /* \"contracts/Gacha.sol\":3049:3067  characters[2] == 0 */\n      eq\n        /* \"contracts/Gacha.sol\":3042:3068  assert(characters[2] == 0) */\n      tag_108\n      jumpi\n      tag_109\n      tag_90\n      jump\t// in\n    tag_109:\n    tag_108:\n        /* \"contracts/Gacha.sol\":3102:3103  0 */\n      0x00\n        /* \"contracts/Gacha.sol\":3085:3095  characters */\n      0x02\n        /* \"contracts/Gacha.sol\":3085:3098  characters[3] */\n      0x00\n        /* \"contracts/Gacha.sol\":3096:3097  3 */\n      0x03\n        /* \"contracts/Gacha.sol\":3085:3098  characters[3] */\n      dup2\n      mstore\n      0x20\n      add\n      swap1\n      dup2\n      mstore\n      0x20\n      add\n      0x00\n      keccak256\n      sload\n        /* \"contracts/Gacha.sol\":3085:3103  characters[3] == 0 */\n      eq\n        /* \"contracts/Gacha.sol\":3078:3104  assert(characters[3] == 0) */\n      tag_110\n      jumpi\n      tag_111\n      tag_90\n      jump\t// in\n    tag_111:\n    tag_110:\n        /* \"contracts/Gacha.sol\":3138:3139  0 */\n      0x00\n        /* \"contracts/Gacha.sol\":3121:3131  characters */\n      0x02\n        /* \"contracts/Gacha.sol\":3121:3134  characters[4] */\n      0x00\n        /* \"contracts/Gacha.sol\":3132:3133  4 */\n      0x04\n        /* \"contracts/Gacha.sol\":3121:3134  characters[4] */\n      dup2\n      mstore\n      0x20\n      add\n      swap1\n      dup2\n      mstore\n      0x20\n      add\n      0x00\n      keccak256\n      sload\n        /* \"contracts/Gacha.sol\":3121:3139  characters[4] == 0 */\n      eq\n        /* \"contracts/Gacha.sol\":3114:3140  assert(characters[4] == 0) */\n      tag_112\n      jumpi\n      tag_113\n      tag_90\n      jump\t// in\n    tag_113:\n    tag_112:\n        /* \"contracts/Gacha.sol\":3174:3175  0 */\n      0x00\n        /* \"contracts/Gacha.sol\":3157:3167  characters */\n      0x02\n        /* \"contracts/Gacha.sol\":3157:3170  characters[5] */\n      0x00\n        /* \"contracts/Gacha.sol\":3168:3169  5 */\n      0x05\n        /* \"contracts/Gacha.sol\":3157:3170  characters[5] */\n      dup2\n      mstore\n      0x20\n      add\n      swap1\n      dup2\n      mstore\n      0x20\n      add\n      0x00\n      keccak256\n      sload\n        /* \"contracts/Gacha.sol\":3157:3175  characters[5] == 0 */\n      eq\n        /* \"contracts/Gacha.sol\":3150:3176  assert(characters[5] == 0) */\n      tag_114\n      jumpi\n      tag_115\n      tag_90\n      jump\t// in\n    tag_115:\n    tag_114:\n        /* \"contracts/Gacha.sol\":3210:3211  0 */\n      0x00\n        /* \"contracts/Gacha.sol\":3193:3203  characters */\n      0x02\n        /* \"contracts/Gacha.sol\":3193:3206  characters[6] */\n      0x00\n        /* \"contracts/Gacha.sol\":3204:3205  6 */\n      0x06\n        /* \"contracts/Gacha.sol\":3193:3206  characters[6] */\n      dup2\n      mstore\n      0x20\n      add\n      swap1\n      dup2\n      mstore\n      0x20\n      add\n      0x00\n      keccak256\n      sload\n        /* \"contracts/Gacha.sol\":3193:3211  characters[6] == 0 */\n      eq\n        /* \"contracts/Gacha.sol\":3186:3212  assert(characters[6] == 0) */\n      tag_116\n      jumpi\n      tag_117\n      tag_90\n      jump\t// in\n    tag_117:\n    tag_116:\n        /* \"contracts/Gacha.sol\":3228:3244  BurnCharacters() */\n      0xb11adc57da4c927a877f55f0a1a0fc44a9e16326a7b992edf8d1eb96af52f1ad\n      mload(0x40)\n      mload(0x40)\n      dup1\n      swap2\n      sub\n      swap1\n      log1\n        /* \"contracts/Gacha.sol\":2263:3251  {... */\n      pop\n      pop\n      pop\n        /* \"contracts/Gacha.sol\":2222:3251  function burnCharacters() public payable {... */\n      jump\t// out\n        /* \"#utility.yul\":7:84   */\n    tag_118:\n        /* \"#utility.yul\":44:51   */\n      0x00\n        /* \"#utility.yul\":73:78   */\n      dup2\n        /* \"#utility.yul\":62:78   */\n      swap1\n      pop\n        /* \"#utility.yul\":7:84   */\n      swap2\n      swap1\n      pop\n      jump\t// out\n        /* \"#utility.yul\":90:208   */\n    tag_119:\n        /* \"#utility.yul\":177:201   */\n      tag_138\n        /* \"#utility.yul\":195:200   */\n      dup2\n        /* \"#utility.yul\":177:201   */\n      tag_118\n      jump\t// in\n    tag_138:\n        /* \"#utility.yul\":172:175   */\n      dup3\n        /* \"#utility.yul\":165:202   */\n      mstore\n        /* \"#utility.yul\":90:208   */\n      pop\n      pop\n      jump\t// out\n        /* \"#utility.yul\":214:436   */\n    tag_19:\n        /* \"#utility.yul\":307:311   */\n      0x00\n        /* \"#utility.yul\":345:347   */\n      0x20\n        /* \"#utility.yul\":334:343   */\n      dup3\n        /* \"#utility.yul\":330:348   */\n      add\n        /* \"#utility.yul\":322:348   */\n      swap1\n      pop\n        /* \"#utility.yul\":358:429   */\n      tag_140\n        /* \"#utility.yul\":426:427   */\n      0x00\n        /* \"#utility.yul\":415:424   */\n      dup4\n        /* \"#utility.yul\":411:428   */\n      add\n        /* \"#utility.yul\":402:408   */\n      dup5\n        /* \"#utility.yul\":358:429   */\n      tag_119\n      jump\t// in\n    tag_140:\n        /* \"#utility.yul\":214:436   */\n      swap3\n      swap2\n      pop\n      pop\n      jump\t// out\n        /* \"#utility.yul\":523:640   */\n    tag_121:\n        /* \"#utility.yul\":632:633   */\n      0x00\n        /* \"#utility.yul\":629:630   */\n      dup1\n        /* \"#utility.yul\":622:634   */\n      revert\n        /* \"#utility.yul\":769:891   */\n    tag_123:\n        /* \"#utility.yul\":842:866   */\n      tag_145\n        /* \"#utility.yul\":860:865   */\n      dup2\n        /* \"#utility.yul\":842:866   */\n      tag_118\n      jump\t// in\n    tag_145:\n        /* \"#utility.yul\":835:840   */\n      dup2\n        /* \"#utility.yul\":832:867   */\n      eq\n        /* \"#utility.yul\":822:885   */\n      tag_146\n      jumpi\n        /* \"#utility.yul\":881:882   */\n      0x00\n        /* \"#utility.yul\":878:879   */\n      dup1\n        /* \"#utility.yul\":871:883   */\n      revert\n        /* \"#utility.yul\":822:885   */\n    tag_146:\n        /* \"#utility.yul\":769:891   */\n      pop\n      jump\t// out\n        /* \"#utility.yul\":897:1036   */\n    tag_124:\n        /* \"#utility.yul\":943:948   */\n      0x00\n        /* \"#utility.yul\":981:987   */\n      dup2\n        /* \"#utility.yul\":968:988   */\n      calldataload\n        /* \"#utility.yul\":959:988   */\n      swap1\n      pop\n        /* \"#utility.yul\":997:1030   */\n      tag_148\n        /* \"#utility.yul\":1024:1029   */\n      dup2\n        /* \"#utility.yul\":997:1030   */\n      tag_123\n      jump\t// in\n    tag_148:\n        /* \"#utility.yul\":897:1036   */\n      swap3\n      swap2\n      pop\n      pop\n      jump\t// out\n        /* \"#utility.yul\":1042:1371   */\n    tag_30:\n        /* \"#utility.yul\":1101:1107   */\n      0x00\n        /* \"#utility.yul\":1150:1152   */\n      0x20\n        /* \"#utility.yul\":1138:1147   */\n      dup3\n        /* \"#utility.yul\":1129:1136   */\n      dup5\n        /* \"#utility.yul\":1125:1148   */\n      sub\n        /* \"#utility.yul\":1121:1153   */\n      slt\n        /* \"#utility.yul\":1118:1237   */\n      iszero\n      tag_150\n      jumpi\n        /* \"#utility.yul\":1156:1235   */\n      tag_151\n      tag_121\n      jump\t// in\n    tag_151:\n        /* \"#utility.yul\":1118:1237   */\n    tag_150:\n        /* \"#utility.yul\":1276:1277   */\n      0x00\n        /* \"#utility.yul\":1301:1354   */\n      tag_152\n        /* \"#utility.yul\":1346:1353   */\n      dup5\n        /* \"#utility.yul\":1337:1343   */\n      dup3\n        /* \"#utility.yul\":1326:1335   */\n      dup6\n        /* \"#utility.yul\":1322:1344   */\n      add\n        /* \"#utility.yul\":1301:1354   */\n      tag_124\n      jump\t// in\n    tag_152:\n        /* \"#utility.yul\":1291:1354   */\n      swap2\n      pop\n        /* \"#utility.yul\":1247:1364   */\n      pop\n        /* \"#utility.yul\":1042:1371   */\n      swap3\n      swap2\n      pop\n      pop\n      jump\t// out\n        /* \"#utility.yul\":1377:1503   */\n    tag_125:\n        /* \"#utility.yul\":1414:1421   */\n      0x00\n        /* \"#utility.yul\":1454:1496   */\n      0xffffffffffffffffffffffffffffffffffffffff\n        /* \"#utility.yul\":1447:1452   */\n      dup3\n        /* \"#utility.yul\":1443:1497   */\n      and\n        /* \"#utility.yul\":1432:1497   */\n      swap1\n      pop\n        /* \"#utility.yul\":1377:1503   */\n      swap2\n      swap1\n      pop\n      jump\t// out\n        /* \"#utility.yul\":1509:1613   */\n    tag_126:\n        /* \"#utility.yul\":1554:1561   */\n      0x00\n        /* \"#utility.yul\":1583:1607   */\n      tag_155\n        /* \"#utility.yul\":1601:1606   */\n      dup3\n        /* \"#utility.yul\":1583:1607   */\n      tag_125\n      jump\t// in\n    tag_155:\n        /* \"#utility.yul\":1572:1607   */\n      swap1\n      pop\n        /* \"#utility.yul\":1509:1613   */\n      swap2\n      swap1\n      pop\n      jump\t// out\n        /* \"#utility.yul\":1619:1761   */\n    tag_127:\n        /* \"#utility.yul\":1722:1754   */\n      tag_157\n        /* \"#utility.yul\":1748:1753   */\n      dup2\n        /* \"#utility.yul\":1722:1754   */\n      tag_126\n      jump\t// in\n    tag_157:\n        /* \"#utility.yul\":1717:1720   */\n      dup3\n        /* \"#utility.yul\":1710:1755   */\n      mstore\n        /* \"#utility.yul\":1619:1761   */\n      pop\n      pop\n      jump\t// out\n        /* \"#utility.yul\":1767:2021   */\n    tag_51:\n        /* \"#utility.yul\":1876:1880   */\n      0x00\n        /* \"#utility.yul\":1914:1916   */\n      0x20\n        /* \"#utility.yul\":1903:1912   */\n      dup3\n        /* \"#utility.yul\":1899:1917   */\n      add\n        /* \"#utility.yul\":1891:1917   */\n      swap1\n      pop\n        /* \"#utility.yul\":1927:2014   */\n      tag_159\n        /* \"#utility.yul\":2011:2012   */\n      0x00\n        /* \"#utility.yul\":2000:2009   */\n      dup4\n        /* \"#utility.yul\":1996:2013   */\n      add\n        /* \"#utility.yul\":1987:1993   */\n      dup5\n        /* \"#utility.yul\":1927:2014   */\n      tag_127\n      jump\t// in\n    tag_159:\n        /* \"#utility.yul\":1767:2021   */\n      swap3\n      swap2\n      pop\n      pop\n      jump\t// out\n        /* \"#utility.yul\":2027:2196   */\n    tag_128:\n        /* \"#utility.yul\":2111:2122   */\n      0x00\n        /* \"#utility.yul\":2145:2151   */\n      dup3\n        /* \"#utility.yul\":2140:2143   */\n      dup3\n        /* \"#utility.yul\":2133:2152   */\n      mstore\n        /* \"#utility.yul\":2185:2189   */\n      0x20\n        /* \"#utility.yul\":2180:2183   */\n      dup3\n        /* \"#utility.yul\":2176:2190   */\n      add\n        /* \"#utility.yul\":2161:2190   */\n      swap1\n      pop\n        /* \"#utility.yul\":2027:2196   */\n      swap3\n      swap2\n      pop\n      pop\n      jump\t// out\n        /* \"#utility.yul\":2202:2426   */\n    tag_129:\n        /* \"#utility.yul\":2342:2376   */\n      0x596f7520617265206e6f7420746865206f776e6572206f662074686973206163\n        /* \"#utility.yul\":2338:2339   */\n      0x00\n        /* \"#utility.yul\":2330:2336   */\n      dup3\n        /* \"#utility.yul\":2326:2340   */\n      add\n        /* \"#utility.yul\":2319:2377   */\n      mstore\n        /* \"#utility.yul\":2411:2418   */\n      0x636f756e74000000000000000000000000000000000000000000000000000000\n        /* \"#utility.yul\":2406:2408   */\n      0x20\n        /* \"#utility.yul\":2398:2404   */\n      dup3\n        /* \"#utility.yul\":2394:2409   */\n      add\n        /* \"#utility.yul\":2387:2419   */\n      mstore\n        /* \"#utility.yul\":2202:2426   */\n      pop\n      jump\t// out\n        /* \"#utility.yul\":2432:2798   */\n    tag_130:\n        /* \"#utility.yul\":2574:2577   */\n      0x00\n        /* \"#utility.yul\":2595:2662   */\n      tag_163\n        /* \"#utility.yul\":2659:2661   */\n      0x25\n        /* \"#utility.yul\":2654:2657   */\n      dup4\n        /* \"#utility.yul\":2595:2662   */\n      tag_128\n      jump\t// in\n    tag_163:\n        /* \"#utility.yul\":2588:2662   */\n      swap2\n      pop\n        /* \"#utility.yul\":2671:2764   */\n      tag_164\n        /* \"#utility.yul\":2760:2763   */\n      dup3\n        /* \"#utility.yul\":2671:2764   */\n      tag_129\n      jump\t// in\n    tag_164:\n        /* \"#utility.yul\":2789:2791   */\n      0x40\n        /* \"#utility.yul\":2784:2787   */\n      dup3\n        /* \"#utility.yul\":2780:2792   */\n      add\n        /* \"#utility.yul\":2773:2792   */\n      swap1\n      pop\n        /* \"#utility.yul\":2432:2798   */\n      swap2\n      swap1\n      pop\n      jump\t// out\n        /* \"#utility.yul\":2804:3223   */\n    tag_68:\n        /* \"#utility.yul\":2970:2974   */\n      0x00\n        /* \"#utility.yul\":3008:3010   */\n      0x20\n        /* \"#utility.yul\":2997:3006   */\n      dup3\n        /* \"#utility.yul\":2993:3011   */\n      add\n        /* \"#utility.yul\":2985:3011   */\n      swap1\n      pop\n        /* \"#utility.yul\":3057:3066   */\n      dup2\n        /* \"#utility.yul\":3051:3055   */\n      dup2\n        /* \"#utility.yul\":3047:3067   */\n      sub\n        /* \"#utility.yul\":3043:3044   */\n      0x00\n        /* \"#utility.yul\":3032:3041   */\n      dup4\n        /* \"#utility.yul\":3028:3045   */\n      add\n        /* \"#utility.yul\":3021:3068   */\n      mstore\n        /* \"#utility.yul\":3085:3216   */\n      tag_166\n        /* \"#utility.yul\":3211:3215   */\n      dup2\n        /* \"#utility.yul\":3085:3216   */\n      tag_130\n      jump\t// in\n    tag_166:\n        /* \"#utility.yul\":3077:3216   */\n      swap1\n      pop\n        /* \"#utility.yul\":2804:3223   */\n      swap2\n      swap1\n      pop\n      jump\t// out\n        /* \"#utility.yul\":3229:3409   */\n    tag_131:\n        /* \"#utility.yul\":3277:3354   */\n      0x4e487b7100000000000000000000000000000000000000000000000000000000\n        /* \"#utility.yul\":3274:3275   */\n      0x00\n        /* \"#utility.yul\":3267:3355   */\n      mstore\n        /* \"#utility.yul\":3374:3378   */\n      0x11\n        /* \"#utility.yul\":3371:3372   */\n      0x04\n        /* \"#utility.yul\":3364:3379   */\n      mstore\n        /* \"#utility.yul\":3398:3402   */\n      0x24\n        /* \"#utility.yul\":3395:3396   */\n      0x00\n        /* \"#utility.yul\":3388:3403   */\n      revert\n        /* \"#utility.yul\":3415:3609   */\n    tag_72:\n        /* \"#utility.yul\":3455:3459   */\n      0x00\n        /* \"#utility.yul\":3475:3495   */\n      tag_169\n        /* \"#utility.yul\":3493:3494   */\n      dup3\n        /* \"#utility.yul\":3475:3495   */\n      tag_118\n      jump\t// in\n    tag_169:\n        /* \"#utility.yul\":3470:3495   */\n      swap2\n      pop\n        /* \"#utility.yul\":3509:3529   */\n      tag_170\n        /* \"#utility.yul\":3527:3528   */\n      dup4\n        /* \"#utility.yul\":3509:3529   */\n      tag_118\n      jump\t// in\n    tag_170:\n        /* \"#utility.yul\":3504:3529   */\n      swap3\n      pop\n        /* \"#utility.yul\":3553:3554   */\n      dup3\n        /* \"#utility.yul\":3550:3551   */\n      dup3\n        /* \"#utility.yul\":3546:3555   */\n      sub\n        /* \"#utility.yul\":3538:3555   */\n      swap1\n      pop\n        /* \"#utility.yul\":3577:3578   */\n      dup2\n        /* \"#utility.yul\":3571:3575   */\n      dup2\n        /* \"#utility.yul\":3568:3579   */\n      gt\n        /* \"#utility.yul\":3565:3602   */\n      iszero\n      tag_171\n      jumpi\n        /* \"#utility.yul\":3582:3600   */\n      tag_172\n      tag_131\n      jump\t// in\n    tag_172:\n        /* \"#utility.yul\":3565:3602   */\n    tag_171:\n        /* \"#utility.yul\":3415:3609   */\n      swap3\n      swap2\n      pop\n      pop\n      jump\t// out\n        /* \"#utility.yul\":3615:3806   */\n    tag_74:\n        /* \"#utility.yul\":3655:3658   */\n      0x00\n        /* \"#utility.yul\":3674:3694   */\n      tag_174\n        /* \"#utility.yul\":3692:3693   */\n      dup3\n        /* \"#utility.yul\":3674:3694   */\n      tag_118\n      jump\t// in\n    tag_174:\n        /* \"#utility.yul\":3669:3694   */\n      swap2\n      pop\n        /* \"#utility.yul\":3708:3728   */\n      tag_175\n        /* \"#utility.yul\":3726:3727   */\n      dup4\n        /* \"#utility.yul\":3708:3728   */\n      tag_118\n      jump\t// in\n    tag_175:\n        /* \"#utility.yul\":3703:3728   */\n      swap3\n      pop\n        /* \"#utility.yul\":3751:3752   */\n      dup3\n        /* \"#utility.yul\":3748:3749   */\n      dup3\n        /* \"#utility.yul\":3744:3753   */\n      add\n        /* \"#utility.yul\":3737:3753   */\n      swap1\n      pop\n        /* \"#utility.yul\":3772:3775   */\n      dup1\n        /* \"#utility.yul\":3769:3770   */\n      dup3\n        /* \"#utility.yul\":3766:3776   */\n      gt\n        /* \"#utility.yul\":3763:3799   */\n      iszero\n      tag_176\n      jumpi\n        /* \"#utility.yul\":3779:3797   */\n      tag_177\n      tag_131\n      jump\t// in\n    tag_177:\n        /* \"#utility.yul\":3763:3799   */\n    tag_176:\n        /* \"#utility.yul\":3615:3806   */\n      swap3\n      swap2\n      pop\n      pop\n      jump\t// out\n        /* \"#utility.yul\":3812:4038   */\n    tag_132:\n        /* \"#utility.yul\":3952:3986   */\n      0x4572726f6e656f7573206368616e676520696e2073746174652e2e2e20726576\n        /* \"#utility.yul\":3948:3949   */\n      0x00\n        /* \"#utility.yul\":3940:3946   */\n      dup3\n        /* \"#utility.yul\":3936:3950   */\n      add\n        /* \"#utility.yul\":3929:3987   */\n      mstore\n        /* \"#utility.yul\":4021:4030   */\n      0x657274696e672e00000000000000000000000000000000000000000000000000\n        /* \"#utility.yul\":4016:4018   */\n      0x20\n        /* \"#utility.yul\":4008:4014   */\n      dup3\n        /* \"#utility.yul\":4004:4019   */\n      add\n        /* \"#utility.yul\":3997:4031   */\n      mstore\n        /* \"#utility.yul\":3812:4038   */\n      pop\n      jump\t// out\n        /* \"#utility.yul\":4044:4410   */\n    tag_133:\n        /* \"#utility.yul\":4186:4189   */\n      0x00\n        /* \"#utility.yul\":4207:4274   */\n      tag_180\n        /* \"#utility.yul\":4271:4273   */\n      0x27\n        /* \"#utility.yul\":4266:4269   */\n      dup4\n        /* \"#utility.yul\":4207:4274   */\n      tag_128\n      jump\t// in\n    tag_180:\n        /* \"#utility.yul\":4200:4274   */\n      swap2\n      pop\n        /* \"#utility.yul\":4283:4376   */\n      tag_181\n        /* \"#utility.yul\":4372:4375   */\n      dup3\n        /* \"#utility.yul\":4283:4376   */\n      tag_132\n      jump\t// in\n    tag_181:\n        /* \"#utility.yul\":4401:4403   */\n      0x40\n        /* \"#utility.yul\":4396:4399   */\n      dup3\n        /* \"#utility.yul\":4392:4404   */\n      add\n        /* \"#utility.yul\":4385:4404   */\n      swap1\n      pop\n        /* \"#utility.yul\":4044:4410   */\n      swap2\n      swap1\n      pop\n      jump\t// out\n        /* \"#utility.yul\":4416:4835   */\n    tag_80:\n        /* \"#utility.yul\":4582:4586   */\n      0x00\n        /* \"#utility.yul\":4620:4622   */\n      0x20\n        /* \"#utility.yul\":4609:4618   */\n      dup3\n        /* \"#utility.yul\":4605:4623   */\n      add\n        /* \"#utility.yul\":4597:4623   */\n      swap1\n      pop\n        /* \"#utility.yul\":4669:4678   */\n      dup2\n        /* \"#utility.yul\":4663:4667   */\n      dup2\n        /* \"#utility.yul\":4659:4679   */\n      sub\n        /* \"#utility.yul\":4655:4656   */\n      0x00\n        /* \"#utility.yul\":4644:4653   */\n      dup4\n        /* \"#utility.yul\":4640:4657   */\n      add\n        /* \"#utility.yul\":4633:4680   */\n      mstore\n        /* \"#utility.yul\":4697:4828   */\n      tag_183\n        /* \"#utility.yul\":4823:4827   */\n      dup2\n        /* \"#utility.yul\":4697:4828   */\n      tag_133\n      jump\t// in\n    tag_183:\n        /* \"#utility.yul\":4689:4828   */\n      swap1\n      pop\n        /* \"#utility.yul\":4416:4835   */\n      swap2\n      swap1\n      pop\n      jump\t// out\n        /* \"#utility.yul\":4841:5021   */\n    tag_90:\n        /* \"#utility.yul\":4889:4966   */\n      0x4e487b7100000000000000000000000000000000000000000000000000000000\n        /* \"#utility.yul\":4886:4887   */\n      0x00\n        /* \"#utility.yul\":4879:4967   */\n      mstore\n        /* \"#utility.yul\":4986:4990   */\n      0x01\n        /* \"#utility.yul\":4983:4984   */\n      0x04\n        /* \"#utility.yul\":4976:4991   */\n      mstore\n        /* \"#utility.yul\":5010:5014   */\n      0x24\n        /* \"#utility.yul\":5007:5008   */\n      0x00\n        /* \"#utility.yul\":5000:5015   */\n      revert\n        /* \"#utility.yul\":5027:5207   */\n    tag_134:\n        /* \"#utility.yul\":5075:5152   */\n      0x4e487b7100000000000000000000000000000000000000000000000000000000\n        /* \"#utility.yul\":5072:5073   */\n      0x00\n        /* \"#utility.yul\":5065:5153   */\n      mstore\n        /* \"#utility.yul\":5172:5176   */\n      0x12\n        /* \"#utility.yul\":5169:5170   */\n      0x04\n        /* \"#utility.yul\":5162:5177   */\n      mstore\n        /* \"#utility.yul\":5196:5200   */\n      0x24\n        /* \"#utility.yul\":5193:5194   */\n      0x00\n        /* \"#utility.yul\":5186:5201   */\n      revert\n        /* \"#utility.yul\":5213:5398   */\n    tag_101:\n        /* \"#utility.yul\":5253:5254   */\n      0x00\n        /* \"#utility.yul\":5270:5290   */\n      tag_187\n        /* \"#utility.yul\":5288:5289   */\n      dup3\n        /* \"#utility.yul\":5270:5290   */\n      tag_118\n      jump\t// in\n    tag_187:\n        /* \"#utility.yul\":5265:5290   */\n      swap2\n      pop\n        /* \"#utility.yul\":5304:5324   */\n      tag_188\n        /* \"#utility.yul\":5322:5323   */\n      dup4\n        /* \"#utility.yul\":5304:5324   */\n      tag_118\n      jump\t// in\n    tag_188:\n        /* \"#utility.yul\":5299:5324   */\n      swap3\n      pop\n        /* \"#utility.yul\":5343:5344   */\n      dup3\n        /* \"#utility.yul\":5333:5368   */\n      tag_189\n      jumpi\n        /* \"#utility.yul\":5348:5366   */\n      tag_190\n      tag_134\n      jump\t// in\n    tag_190:\n        /* \"#utility.yul\":5333:5368   */\n    tag_189:\n        /* \"#utility.yul\":5390:5391   */\n      dup3\n        /* \"#utility.yul\":5387:5388   */\n      dup3\n        /* \"#utility.yul\":5383:5392   */\n      div\n        /* \"#utility.yul\":5378:5392   */\n      swap1\n      pop\n        /* \"#utility.yul\":5213:5398   */\n      swap3\n      swap2\n      pop\n      pop\n      jump\t// out\n\n    auxdata: 0xa2646970667358221220b496ce0f51c112fbf10160026a26b49d4011afbaeb8553df7fbac73dab99be8664736f6c634300081a0033\n}\n",
				"bytecode": {
					"linkReferences": {},
					"object": "6080604052604051610d07380380610d0783398181016040528101906023919060a0565b335f806101000a81548173ffffffffffffffffffffffffffffffffffffffff021916908373ffffffffffffffffffffffffffffffffffffffff160217905550806001819055505060c6565b5f80fd5b5f819050919050565b6082816072565b8114608b575f80fd5b50565b5f81519050609a81607b565b92915050565b5f6020828403121560b25760b1606e565b5b5f60bd84828501608e565b91505092915050565b610c34806100d35f395ff3fe6080604052600436106100a6575f3560e01c80634810bc59116100635780634810bc59146101785780637780fecb146101b45780638da5cb5b146101de578063acc89bbe14610208578063b69ef8a814610232578063fd1700eb1461025c576100a6565b80630de14c4d146100aa5780630f555bf7146100d457806312065fe0146100fe5780631f7b4f30146101285780633d8ef5281461014457806341a97a5b1461016e575b5f80fd5b3480156100b5575f80fd5b506100be610266565b6040516100cb91906108eb565b60405180910390f35b3480156100df575f80fd5b506100e861027f565b6040516100f591906108eb565b60405180910390f35b348015610109575f80fd5b50610112610298565b60405161011f91906108eb565b60405180910390f35b610142600480360381019061013d9190610932565b6102a1565b005b34801561014f575f80fd5b50610158610488565b60405161016591906108eb565b60405180910390f35b6101766104a1565b005b348015610183575f80fd5b5061019e60048036038101906101999190610932565b61056d565b6040516101ab91906108eb565b60405180910390f35b3480156101bf575f80fd5b506101c8610582565b6040516101d591906108eb565b60405180910390f35b3480156101e9575f80fd5b506101f261059b565b6040516101ff919061099c565b60405180910390f35b348015610213575f80fd5b5061021c6105be565b60405161022991906108eb565b60405180910390f35b34801561023d575f80fd5b506102466105d7565b60405161025391906108eb565b60405180910390f35b6102646105dd565b005b5f60025f600281526020019081526020015f2054905090565b5f60025f600481526020019081526020015f2054905090565b5f600154905090565b5f8054906101000a900473ffffffffffffffffffffffffffffffffffffffff1673ffffffffffffffffffffffffffffffffffffffff163373ffffffffffffffffffffffffffffffffffffffff161461032e576040517f08c379a000000000000000000000000000000000000000000000000000000000815260040161032590610a35565b60405180910390fd5b5f60015490505f60025f8481526020019081526020015f20549050600180541015610392576001546040517f9266535100000000000000000000000000000000000000000000000000000000815260040161038991906108eb565b60405180910390fd5b6001805f8282546103a39190610a80565b92505081905550600160025f8581526020019081526020015f205f8282546103cb9190610ab3565b925050819055506001826103df9190610a80565b60015414158061040c57506001816103f79190610ab3565b60025f8581526020019081526020015f205414155b1561044c576040517f08c379a000000000000000000000000000000000000000000000000000000000815260040161044390610b56565b60405180910390fd5b7fb682b75453cfd68407d152acdf75c3ae0088182f59191a7006c09071adad76a38360405161047b91906108eb565b60405180910390a1505050565b5f60025f600581526020019081526020015f2054905090565b5f8054906101000a900473ffffffffffffffffffffffffffffffffffffffff1673ffffffffffffffffffffffffffffffffffffffff163373ffffffffffffffffffffffffffffffffffffffff161461052e576040517f08c379a000000000000000000000000000000000000000000000000000000000815260040161052590610a35565b60405180910390fd5b5f60015490506001805f8282546105459190610ab3565b925050819055506001816105599190610ab3565b6001541461056a57610569610b74565b5b50565b6002602052805f5260405f205f915090505481565b5f60025f600681526020019081526020015f2054905090565b5f8054906101000a900473ffffffffffffffffffffffffffffffffffffffff1681565b5f60025f600381526020019081526020015f2054905090565b60015481565b5f8054906101000a900473ffffffffffffffffffffffffffffffffffffffff1673ffffffffffffffffffffffffffffffffffffffff163373ffffffffffffffffffffffffffffffffffffffff161461066a576040517f08c379a000000000000000000000000000000000000000000000000000000000815260040161066190610a35565b60405180910390fd5b5f60015490505f60025f600681526020019081526020015f205460025f600581526020019081526020015f205460025f600481526020019081526020015f205460025f600381526020019081526020015f205460025f600281526020019081526020015f20546106da9190610ab3565b6106e49190610ab3565b6106ee9190610ab3565b6106f89190610ab3565b90505f600a826107089190610bce565b9050600181101561075057816040517f567d34ef00000000000000000000000000000000000000000000000000000000815260040161074791906108eb565b60405180910390fd5b5f60025f600281526020019081526020015f20819055505f60025f600381526020019081526020015f20819055505f60025f600481526020019081526020015f20819055505f60025f600581526020019081526020015f20819055505f60025f600681526020019081526020015f20819055508060015f8282546107d49190610ab3565b9250508190555080836107e79190610ab3565b600154146107f8576107f7610b74565b5b5f60025f600281526020019081526020015f20541461081a57610819610b74565b5b5f60025f600381526020019081526020015f20541461083c5761083b610b74565b5b5f60025f600481526020019081526020015f20541461085e5761085d610b74565b5b5f60025f600581526020019081526020015f2054146108805761087f610b74565b5b5f60025f600681526020019081526020015f2054146108a2576108a1610b74565b5b7fb11adc57da4c927a877f55f0a1a0fc44a9e16326a7b992edf8d1eb96af52f1ad60405160405180910390a1505050565b5f819050919050565b6108e5816108d3565b82525050565b5f6020820190506108fe5f8301846108dc565b92915050565b5f80fd5b610911816108d3565b811461091b575f80fd5b50565b5f8135905061092c81610908565b92915050565b5f6020828403121561094757610946610904565b5b5f6109548482850161091e565b91505092915050565b5f73ffffffffffffffffffffffffffffffffffffffff82169050919050565b5f6109868261095d565b9050919050565b6109968161097c565b82525050565b5f6020820190506109af5f83018461098d565b92915050565b5f82825260208201905092915050565b7f596f7520617265206e6f7420746865206f776e6572206f6620746869732061635f8201527f636f756e74000000000000000000000000000000000000000000000000000000602082015250565b5f610a1f6025836109b5565b9150610a2a826109c5565b604082019050919050565b5f6020820190508181035f830152610a4c81610a13565b9050919050565b7f4e487b71000000000000000000000000000000000000000000000000000000005f52601160045260245ffd5b5f610a8a826108d3565b9150610a95836108d3565b9250828203905081811115610aad57610aac610a53565b5b92915050565b5f610abd826108d3565b9150610ac8836108d3565b9250828201905080821115610ae057610adf610a53565b5b92915050565b7f4572726f6e656f7573206368616e676520696e2073746174652e2e2e207265765f8201527f657274696e672e00000000000000000000000000000000000000000000000000602082015250565b5f610b406027836109b5565b9150610b4b82610ae6565b604082019050919050565b5f6020820190508181035f830152610b6d81610b34565b9050919050565b7f4e487b71000000000000000000000000000000000000000000000000000000005f52600160045260245ffd5b7f4e487b71000000000000000000000000000000000000000000000000000000005f52601260045260245ffd5b5f610bd8826108d3565b9150610be3836108d3565b925082610bf357610bf2610ba1565b5b82820490509291505056fea2646970667358221220b496ce0f51c112fbf10160026a26b49d4011afbaeb8553df7fbac73dab99be8664736f6c634300081a0033",
					"opcodes": "PUSH1 0x80 PUSH1 0x40 MSTORE PUSH1 0x40 MLOAD PUSH2 0xD07 CODESIZE SUB DUP1 PUSH2 0xD07 DUP4 CODECOPY DUP2 DUP2 ADD PUSH1 0x40 MSTORE DUP2 ADD SWAP1 PUSH1 0x23 SWAP2 SWAP1 PUSH1 0xA0 JUMP JUMPDEST CALLER PUSH0 DUP1 PUSH2 0x100 EXP DUP2 SLOAD DUP2 PUSH20 0xFFFFFFFFFFFFFFFFFFFFFFFFFFFFFFFFFFFFFFFF MUL NOT AND SWAP1 DUP4 PUSH20 0xFFFFFFFFFFFFFFFFFFFFFFFFFFFFFFFFFFFFFFFF AND MUL OR SWAP1 SSTORE POP DUP1 PUSH1 0x1 DUP2 SWAP1 SSTORE POP POP PUSH1 0xC6 JUMP JUMPDEST PUSH0 DUP1 REVERT JUMPDEST PUSH0 DUP2 SWAP1 POP SWAP2 SWAP1 POP JUMP JUMPDEST PUSH1 0x82 DUP2 PUSH1 0x72 JUMP JUMPDEST DUP2 EQ PUSH1 0x8B JUMPI PUSH0 DUP1 REVERT JUMPDEST POP JUMP JUMPDEST PUSH0 DUP2 MLOAD SWAP1 POP PUSH1 0x9A DUP2 PUSH1 0x7B JUMP JUMPDEST SWAP3 SWAP2 POP POP JUMP JUMPDEST PUSH0 PUSH1 0x20 DUP3 DUP5 SUB SLT ISZERO PUSH1 0xB2 JUMPI PUSH1 0xB1 PUSH1 0x6E JUMP JUMPDEST JUMPDEST PUSH0 PUSH1 0xBD DUP5 DUP3 DUP6 ADD PUSH1 0x8E JUMP JUMPDEST SWAP2 POP POP SWAP3 SWAP2 POP POP JUMP JUMPDEST PUSH2 0xC34 DUP1 PUSH2 0xD3 PUSH0 CODECOPY PUSH0 RETURN INVALID PUSH1 0x80 PUSH1 0x40 MSTORE PUSH1 0x4 CALLDATASIZE LT PUSH2 0xA6 JUMPI PUSH0 CALLDATALOAD PUSH1 0xE0 SHR DUP1 PUSH4 0x4810BC59 GT PUSH2 0x63 JUMPI DUP1 PUSH4 0x4810BC59 EQ PUSH2 0x178 JUMPI DUP1 PUSH4 0x7780FECB EQ PUSH2 0x1B4 JUMPI DUP1 PUSH4 0x8DA5CB5B EQ PUSH2 0x1DE JUMPI DUP1 PUSH4 0xACC89BBE EQ PUSH2 0x208 JUMPI DUP1 PUSH4 0xB69EF8A8 EQ PUSH2 0x232 JUMPI DUP1 PUSH4 0xFD1700EB EQ PUSH2 0x25C JUMPI PUSH2 0xA6 JUMP JUMPDEST DUP1 PUSH4 0xDE14C4D EQ PUSH2 0xAA JUMPI DUP1 PUSH4 0xF555BF7 EQ PUSH2 0xD4 JUMPI DUP1 PUSH4 0x12065FE0 EQ PUSH2 0xFE JUMPI DUP1 PUSH4 0x1F7B4F30 EQ PUSH2 0x128 JUMPI DUP1 PUSH4 0x3D8EF528 EQ PUSH2 0x144 JUMPI DUP1 PUSH4 0x41A97A5B EQ PUSH2 0x16E JUMPI JUMPDEST PUSH0 DUP1 REVERT JUMPDEST CALLVALUE DUP1 ISZERO PUSH2 0xB5 JUMPI PUSH0 DUP1 REVERT JUMPDEST POP PUSH2 0xBE PUSH2 0x266 JUMP JUMPDEST PUSH1 0x40 MLOAD PUSH2 0xCB SWAP2 SWAP1 PUSH2 0x8EB JUMP JUMPDEST PUSH1 0x40 MLOAD DUP1 SWAP2 SUB SWAP1 RETURN JUMPDEST CALLVALUE DUP1 ISZERO PUSH2 0xDF JUMPI PUSH0 DUP1 REVERT JUMPDEST POP PUSH2 0xE8 PUSH2 0x27F JUMP JUMPDEST PUSH1 0x40 MLOAD PUSH2 0xF5 SWAP2 SWAP1 PUSH2 0x8EB JUMP JUMPDEST PUSH1 0x40 MLOAD DUP1 SWAP2 SUB SWAP1 RETURN JUMPDEST CALLVALUE DUP1 ISZERO PUSH2 0x109 JUMPI PUSH0 DUP1 REVERT JUMPDEST POP PUSH2 0x112 PUSH2 0x298 JUMP JUMPDEST PUSH1 0x40 MLOAD PUSH2 0x11F SWAP2 SWAP1 PUSH2 0x8EB JUMP JUMPDEST PUSH1 0x40 MLOAD DUP1 SWAP2 SUB SWAP1 RETURN JUMPDEST PUSH2 0x142 PUSH1 0x4 DUP1 CALLDATASIZE SUB DUP2 ADD SWAP1 PUSH2 0x13D SWAP2 SWAP1 PUSH2 0x932 JUMP JUMPDEST PUSH2 0x2A1 JUMP JUMPDEST STOP JUMPDEST CALLVALUE DUP1 ISZERO PUSH2 0x14F JUMPI PUSH0 DUP1 REVERT JUMPDEST POP PUSH2 0x158 PUSH2 0x488 JUMP JUMPDEST PUSH1 0x40 MLOAD PUSH2 0x165 SWAP2 SWAP1 PUSH2 0x8EB JUMP JUMPDEST PUSH1 0x40 MLOAD DUP1 SWAP2 SUB SWAP1 RETURN JUMPDEST PUSH2 0x176 PUSH2 0x4A1 JUMP JUMPDEST STOP JUMPDEST CALLVALUE DUP1 ISZERO PUSH2 0x183 JUMPI PUSH0 DUP1 REVERT JUMPDEST POP PUSH2 0x19E PUSH1 0x4 DUP1 CALLDATASIZE SUB DUP2 ADD SWAP1 PUSH2 0x199 SWAP2 SWAP1 PUSH2 0x932 JUMP JUMPDEST PUSH2 0x56D JUMP JUMPDEST PUSH1 0x40 MLOAD PUSH2 0x1AB SWAP2 SWAP1 PUSH2 0x8EB JUMP JUMPDEST PUSH1 0x40 MLOAD DUP1 SWAP2 SUB SWAP1 RETURN JUMPDEST CALLVALUE DUP1 ISZERO PUSH2 0x1BF JUMPI PUSH0 DUP1 REVERT JUMPDEST POP PUSH2 0x1C8 PUSH2 0x582 JUMP JUMPDEST PUSH1 0x40 MLOAD PUSH2 0x1D5 SWAP2 SWAP1 PUSH2 0x8EB JUMP JUMPDEST PUSH1 0x40 MLOAD DUP1 SWAP2 SUB SWAP1 RETURN JUMPDEST CALLVALUE DUP1 ISZERO PUSH2 0x1E9 JUMPI PUSH0 DUP1 REVERT JUMPDEST POP PUSH2 0x1F2 PUSH2 0x59B JUMP JUMPDEST PUSH1 0x40 MLOAD PUSH2 0x1FF SWAP2 SWAP1 PUSH2 0x99C JUMP JUMPDEST PUSH1 0x40 MLOAD DUP1 SWAP2 SUB SWAP1 RETURN JUMPDEST CALLVALUE DUP1 ISZERO PUSH2 0x213 JUMPI PUSH0 DUP1 REVERT JUMPDEST POP PUSH2 0x21C PUSH2 0x5BE JUMP JUMPDEST PUSH1 0x40 MLOAD PUSH2 0x229 SWAP2 SWAP1 PUSH2 0x8EB JUMP JUMPDEST PUSH1 0x40 MLOAD DUP1 SWAP2 SUB SWAP1 RETURN JUMPDEST CALLVALUE DUP1 ISZERO PUSH2 0x23D JUMPI PUSH0 DUP1 REVERT JUMPDEST POP PUSH2 0x246 PUSH2 0x5D7 JUMP JUMPDEST PUSH1 0x40 MLOAD PUSH2 0x253 SWAP2 SWAP1 PUSH2 0x8EB JUMP JUMPDEST PUSH1 0x40 MLOAD DUP1 SWAP2 SUB SWAP1 RETURN JUMPDEST PUSH2 0x264 PUSH2 0x5DD JUMP JUMPDEST STOP JUMPDEST PUSH0 PUSH1 0x2 PUSH0 PUSH1 0x2 DUP2 MSTORE PUSH1 0x20 ADD SWAP1 DUP2 MSTORE PUSH1 0x20 ADD PUSH0 KECCAK256 SLOAD SWAP1 POP SWAP1 JUMP JUMPDEST PUSH0 PUSH1 0x2 PUSH0 PUSH1 0x4 DUP2 MSTORE PUSH1 0x20 ADD SWAP1 DUP2 MSTORE PUSH1 0x20 ADD PUSH0 KECCAK256 SLOAD SWAP1 POP SWAP1 JUMP JUMPDEST PUSH0 PUSH1 0x1 SLOAD SWAP1 POP SWAP1 JUMP JUMPDEST PUSH0 DUP1 SLOAD SWAP1 PUSH2 0x100 EXP SWAP1 DIV PUSH20 0xFFFFFFFFFFFFFFFFFFFFFFFFFFFFFFFFFFFFFFFF AND PUSH20 0xFFFFFFFFFFFFFFFFFFFFFFFFFFFFFFFFFFFFFFFF AND CALLER PUSH20 0xFFFFFFFFFFFFFFFFFFFFFFFFFFFFFFFFFFFFFFFF AND EQ PUSH2 0x32E JUMPI PUSH1 0x40 MLOAD PUSH32 0x8C379A000000000000000000000000000000000000000000000000000000000 DUP2 MSTORE PUSH1 0x4 ADD PUSH2 0x325 SWAP1 PUSH2 0xA35 JUMP JUMPDEST PUSH1 0x40 MLOAD DUP1 SWAP2 SUB SWAP1 REVERT JUMPDEST PUSH0 PUSH1 0x1 SLOAD SWAP1 POP PUSH0 PUSH1 0x2 PUSH0 DUP5 DUP2 MSTORE PUSH1 0x20 ADD SWAP1 DUP2 MSTORE PUSH1 0x20 ADD PUSH0 KECCAK256 SLOAD SWAP1 POP PUSH1 0x1 DUP1 SLOAD LT ISZERO PUSH2 0x392 JUMPI PUSH1 0x1 SLOAD PUSH1 0x40 MLOAD PUSH32 0x9266535100000000000000000000000000000000000000000000000000000000 DUP2 MSTORE PUSH1 0x4 ADD PUSH2 0x389 SWAP2 SWAP1 PUSH2 0x8EB JUMP JUMPDEST PUSH1 0x40 MLOAD DUP1 SWAP2 SUB SWAP1 REVERT JUMPDEST PUSH1 0x1 DUP1 PUSH0 DUP3 DUP3 SLOAD PUSH2 0x3A3 SWAP2 SWAP1 PUSH2 0xA80 JUMP JUMPDEST SWAP3 POP POP DUP2 SWAP1 SSTORE POP PUSH1 0x1 PUSH1 0x2 PUSH0 DUP6 DUP2 MSTORE PUSH1 0x20 ADD SWAP1 DUP2 MSTORE PUSH1 0x20 ADD PUSH0 KECCAK256 PUSH0 DUP3 DUP3 SLOAD PUSH2 0x3CB SWAP2 SWAP1 PUSH2 0xAB3 JUMP JUMPDEST SWAP3 POP POP DUP2 SWAP1 SSTORE POP PUSH1 0x1 DUP3 PUSH2 0x3DF SWAP2 SWAP1 PUSH2 0xA80 JUMP JUMPDEST PUSH1 0x1 SLOAD EQ ISZERO DUP1 PUSH2 0x40C JUMPI POP PUSH1 0x1 DUP2 PUSH2 0x3F7 SWAP2 SWAP1 PUSH2 0xAB3 JUMP JUMPDEST PUSH1 0x2 PUSH0 DUP6 DUP2 MSTORE PUSH1 0x20 ADD SWAP1 DUP2 MSTORE PUSH1 0x20 ADD PUSH0 KECCAK256 SLOAD EQ ISZERO JUMPDEST ISZERO PUSH2 0x44C JUMPI PUSH1 0x40 MLOAD PUSH32 0x8C379A000000000000000000000000000000000000000000000000000000000 DUP2 MSTORE PUSH1 0x4 ADD PUSH2 0x443 SWAP1 PUSH2 0xB56 JUMP JUMPDEST PUSH1 0x40 MLOAD DUP1 SWAP2 SUB SWAP1 REVERT JUMPDEST PUSH32 0xB682B75453CFD68407D152ACDF75C3AE0088182F59191A7006C09071ADAD76A3 DUP4 PUSH1 0x40 MLOAD PUSH2 0x47B SWAP2 SWAP1 PUSH2 0x8EB JUMP JUMPDEST PUSH1 0x40 MLOAD DUP1 SWAP2 SUB SWAP1 LOG1 POP POP POP JUMP JUMPDEST PUSH0 PUSH1 0x2 PUSH0 PUSH1 0x5 DUP2 MSTORE PUSH1 0x20 ADD SWAP1 DUP2 MSTORE PUSH1 0x20 ADD PUSH0 KECCAK256 SLOAD SWAP1 POP SWAP1 JUMP JUMPDEST PUSH0 DUP1 SLOAD SWAP1 PUSH2 0x100 EXP SWAP1 DIV PUSH20 0xFFFFFFFFFFFFFFFFFFFFFFFFFFFFFFFFFFFFFFFF AND PUSH20 0xFFFFFFFFFFFFFFFFFFFFFFFFFFFFFFFFFFFFFFFF AND CALLER PUSH20 0xFFFFFFFFFFFFFFFFFFFFFFFFFFFFFFFFFFFFFFFF AND EQ PUSH2 0x52E JUMPI PUSH1 0x40 MLOAD PUSH32 0x8C379A000000000000000000000000000000000000000000000000000000000 DUP2 MSTORE PUSH1 0x4 ADD PUSH2 0x525 SWAP1 PUSH2 0xA35 JUMP JUMPDEST PUSH1 0x40 MLOAD DUP1 SWAP2 SUB SWAP1 REVERT JUMPDEST PUSH0 PUSH1 0x1 SLOAD SWAP1 POP PUSH1 0x1 DUP1 PUSH0 DUP3 DUP3 SLOAD PUSH2 0x545 SWAP2 SWAP1 PUSH2 0xAB3 JUMP JUMPDEST SWAP3 POP POP DUP2 SWAP1 SSTORE POP PUSH1 0x1 DUP2 PUSH2 0x559 SWAP2 SWAP1 PUSH2 0xAB3 JUMP JUMPDEST PUSH1 0x1 SLOAD EQ PUSH2 0x56A JUMPI PUSH2 0x569 PUSH2 0xB74 JUMP JUMPDEST JUMPDEST POP JUMP JUMPDEST PUSH1 0x2 PUSH1 0x20 MSTORE DUP1 PUSH0 MSTORE PUSH1 0x40 PUSH0 KECCAK256 PUSH0 SWAP2 POP SWAP1 POP SLOAD DUP2 JUMP JUMPDEST PUSH0 PUSH1 0x2 PUSH0 PUSH1 0x6 DUP2 MSTORE PUSH1 0x20 ADD SWAP1 DUP2 MSTORE PUSH1 0x20 ADD PUSH0 KECCAK256 SLOAD SWAP1 POP SWAP1 JUMP JUMPDEST PUSH0 DUP1 SLOAD SWAP1 PUSH2 0x100 EXP SWAP1 DIV PUSH20 0xFFFFFFFFFFFFFFFFFFFFFFFFFFFFFFFFFFFFFFFF AND DUP2 JUMP JUMPDEST PUSH0 PUSH1 0x2 PUSH0 PUSH1 0x3 DUP2 MSTORE PUSH1 0x20 ADD SWAP1 DUP2 MSTORE PUSH1 0x20 ADD PUSH0 KECCAK256 SLOAD SWAP1 POP SWAP1 JUMP JUMPDEST PUSH1 0x1 SLOAD DUP2 JUMP JUMPDEST PUSH0 DUP1 SLOAD SWAP1 PUSH2 0x100 EXP SWAP1 DIV PUSH20 0xFFFFFFFFFFFFFFFFFFFFFFFFFFFFFFFFFFFFFFFF AND PUSH20 0xFFFFFFFFFFFFFFFFFFFFFFFFFFFFFFFFFFFFFFFF AND CALLER PUSH20 0xFFFFFFFFFFFFFFFFFFFFFFFFFFFFFFFFFFFFFFFF AND EQ PUSH2 0x66A JUMPI PUSH1 0x40 MLOAD PUSH32 0x8C379A000000000000000000000000000000000000000000000000000000000 DUP2 MSTORE PUSH1 0x4 ADD PUSH2 0x661 SWAP1 PUSH2 0xA35 JUMP JUMPDEST PUSH1 0x40 MLOAD DUP1 SWAP2 SUB SWAP1 REVERT JUMPDEST PUSH0 PUSH1 0x1 SLOAD SWAP1 POP PUSH0 PUSH1 0x2 PUSH0 PUSH1 0x6 DUP2 MSTORE PUSH1 0x20 ADD SWAP1 DUP2 MSTORE PUSH1 0x20 ADD PUSH0 KECCAK256 SLOAD PUSH1 0x2 PUSH0 PUSH1 0x5 DUP2 MSTORE PUSH1 0x20 ADD SWAP1 DUP2 MSTORE PUSH1 0x20 ADD PUSH0 KECCAK256 SLOAD PUSH1 0x2 PUSH0 PUSH1 0x4 DUP2 MSTORE PUSH1 0x20 ADD SWAP1 DUP2 MSTORE PUSH1 0x20 ADD PUSH0 KECCAK256 SLOAD PUSH1 0x2 PUSH0 PUSH1 0x3 DUP2 MSTORE PUSH1 0x20 ADD SWAP1 DUP2 MSTORE PUSH1 0x20 ADD PUSH0 KECCAK256 SLOAD PUSH1 0x2 PUSH0 PUSH1 0x2 DUP2 MSTORE PUSH1 0x20 ADD SWAP1 DUP2 MSTORE PUSH1 0x20 ADD PUSH0 KECCAK256 SLOAD PUSH2 0x6DA SWAP2 SWAP1 PUSH2 0xAB3 JUMP JUMPDEST PUSH2 0x6E4 SWAP2 SWAP1 PUSH2 0xAB3 JUMP JUMPDEST PUSH2 0x6EE SWAP2 SWAP1 PUSH2 0xAB3 JUMP JUMPDEST PUSH2 0x6F8 SWAP2 SWAP1 PUSH2 0xAB3 JUMP JUMPDEST SWAP1 POP PUSH0 PUSH1 0xA DUP3 PUSH2 0x708 SWAP2 SWAP1 PUSH2 0xBCE JUMP JUMPDEST SWAP1 POP PUSH1 0x1 DUP2 LT ISZERO PUSH2 0x750 JUMPI DUP2 PUSH1 0x40 MLOAD PUSH32 0x567D34EF00000000000000000000000000000000000000000000000000000000 DUP2 MSTORE PUSH1 0x4 ADD PUSH2 0x747 SWAP2 SWAP1 PUSH2 0x8EB JUMP JUMPDEST PUSH1 0x40 MLOAD DUP1 SWAP2 SUB SWAP1 REVERT JUMPDEST PUSH0 PUSH1 0x2 PUSH0 PUSH1 0x2 DUP2 MSTORE PUSH1 0x20 ADD SWAP1 DUP2 MSTORE PUSH1 0x20 ADD PUSH0 KECCAK256 DUP2 SWAP1 SSTORE POP PUSH0 PUSH1 0x2 PUSH0 PUSH1 0x3 DUP2 MSTORE PUSH1 0x20 ADD SWAP1 DUP2 MSTORE PUSH1 0x20 ADD PUSH0 KECCAK256 DUP2 SWAP1 SSTORE POP PUSH0 PUSH1 0x2 PUSH0 PUSH1 0x4 DUP2 MSTORE PUSH1 0x20 ADD SWAP1 DUP2 MSTORE PUSH1 0x20 ADD PUSH0 KECCAK256 DUP2 SWAP1 SSTORE POP PUSH0 PUSH1 0x2 PUSH0 PUSH1 0x5 DUP2 MSTORE PUSH1 0x20 ADD SWAP1 DUP2 MSTORE PUSH1 0x20 ADD PUSH0 KECCAK256 DUP2 SWAP1 SSTORE POP PUSH0 PUSH1 0x2 PUSH0 PUSH1 0x6 DUP2 MSTORE PUSH1 0x20 ADD SWAP1 DUP2 MSTORE PUSH1 0x20 ADD PUSH0 KECCAK256 DUP2 SWAP1 SSTORE POP DUP1 PUSH1 0x1 PUSH0 DUP3 DUP3 SLOAD PUSH2 0x7D4 SWAP2 SWAP1 PUSH2 0xAB3 JUMP JUMPDEST SWAP3 POP POP DUP2 SWAP1 SSTORE POP DUP1 DUP4 PUSH2 0x7E7 SWAP2 SWAP1 PUSH2 0xAB3 JUMP JUMPDEST PUSH1 0x1 SLOAD EQ PUSH2 0x7F8 JUMPI PUSH2 0x7F7 PUSH2 0xB74 JUMP JUMPDEST JUMPDEST PUSH0 PUSH1 0x2 PUSH0 PUSH1 0x2 DUP2 MSTORE PUSH1 0x20 ADD SWAP1 DUP2 MSTORE PUSH1 0x20 ADD PUSH0 KECCAK256 SLOAD EQ PUSH2 0x81A JUMPI PUSH2 0x819 PUSH2 0xB74 JUMP JUMPDEST JUMPDEST PUSH0 PUSH1 0x2 PUSH0 PUSH1 0x3 DUP2 MSTORE PUSH1 0x20 ADD SWAP1 DUP2 MSTORE PUSH1 0x20 ADD PUSH0 KECCAK256 SLOAD EQ PUSH2 0x83C JUMPI PUSH2 0x83B PUSH2 0xB74 JUMP JUMPDEST JUMPDEST PUSH0 PUSH1 0x2 PUSH0 PUSH1 0x4 DUP2 MSTORE PUSH1 0x20 ADD SWAP1 DUP2 MSTORE PUSH1 0x20 ADD PUSH0 KECCAK256 SLOAD EQ PUSH2 0x85E JUMPI PUSH2 0x85D PUSH2 0xB74 JUMP JUMPDEST JUMPDEST PUSH0 PUSH1 0x2 PUSH0 PUSH1 0x5 DUP2 MSTORE PUSH1 0x20 ADD SWAP1 DUP2 MSTORE PUSH1 0x20 ADD PUSH0 KECCAK256 SLOAD EQ PUSH2 0x880 JUMPI PUSH2 0x87F PUSH2 0xB74 JUMP JUMPDEST JUMPDEST PUSH0 PUSH1 0x2 PUSH0 PUSH1 0x6 DUP2 MSTORE PUSH1 0x20 ADD SWAP1 DUP2 MSTORE PUSH1 0x20 ADD PUSH0 KECCAK256 SLOAD EQ PUSH2 0x8A2 JUMPI PUSH2 0x8A1 PUSH2 0xB74 JUMP JUMPDEST JUMPDEST PUSH32 0xB11ADC57DA4C927A877F55F0A1A0FC44A9E16326A7B992EDF8D1EB96AF52F1AD PUSH1 0x40 MLOAD PUSH1 0x40 MLOAD DUP1 SWAP2 SUB SWAP1 LOG1 POP POP POP JUMP JUMPDEST PUSH0 DUP2 SWAP1 POP SWAP2 SWAP1 POP JUMP JUMPDEST PUSH2 0x8E5 DUP2 PUSH2 0x8D3 JUMP JUMPDEST DUP3 MSTORE POP POP JUMP JUMPDEST PUSH0 PUSH1 0x20 DUP3 ADD SWAP1 POP PUSH2 0x8FE PUSH0 DUP4 ADD DUP5 PUSH2 0x8DC JUMP JUMPDEST SWAP3 SWAP2 POP POP JUMP JUMPDEST PUSH0 DUP1 REVERT JUMPDEST PUSH2 0x911 DUP2 PUSH2 0x8D3 JUMP JUMPDEST DUP2 EQ PUSH2 0x91B JUMPI PUSH0 DUP1 REVERT JUMPDEST POP JUMP JUMPDEST PUSH0 DUP2 CALLDATALOAD SWAP1 POP PUSH2 0x92C DUP2 PUSH2 0x908 JUMP JUMPDEST SWAP3 SWAP2 POP POP JUMP JUMPDEST PUSH0 PUSH1 0x20 DUP3 DUP5 SUB SLT ISZERO PUSH2 0x947 JUMPI PUSH2 0x946 PUSH2 0x904 JUMP JUMPDEST JUMPDEST PUSH0 PUSH2 0x954 DUP5 DUP3 DUP6 ADD PUSH2 0x91E JUMP JUMPDEST SWAP2 POP POP SWAP3 SWAP2 POP POP JUMP JUMPDEST PUSH0 PUSH20 0xFFFFFFFFFFFFFFFFFFFFFFFFFFFFFFFFFFFFFFFF DUP3 AND SWAP1 POP SWAP2 SWAP1 POP JUMP JUMPDEST PUSH0 PUSH2 0x986 DUP3 PUSH2 0x95D JUMP JUMPDEST SWAP1 POP SWAP2 SWAP1 POP JUMP JUMPDEST PUSH2 0x996 DUP2 PUSH2 0x97C JUMP JUMPDEST DUP3 MSTORE POP POP JUMP JUMPDEST PUSH0 PUSH1 0x20 DUP3 ADD SWAP1 POP PUSH2 0x9AF PUSH0 DUP4 ADD DUP5 PUSH2 0x98D JUMP JUMPDEST SWAP3 SWAP2 POP POP JUMP JUMPDEST PUSH0 DUP3 DUP3 MSTORE PUSH1 0x20 DUP3 ADD SWAP1 POP SWAP3 SWAP2 POP POP JUMP JUMPDEST PUSH32 0x596F7520617265206E6F7420746865206F776E6572206F662074686973206163 PUSH0 DUP3 ADD MSTORE PUSH32 0x636F756E74000000000000000000000000000000000000000000000000000000 PUSH1 0x20 DUP3 ADD MSTORE POP JUMP JUMPDEST PUSH0 PUSH2 0xA1F PUSH1 0x25 DUP4 PUSH2 0x9B5 JUMP JUMPDEST SWAP2 POP PUSH2 0xA2A DUP3 PUSH2 0x9C5 JUMP JUMPDEST PUSH1 0x40 DUP3 ADD SWAP1 POP SWAP2 SWAP1 POP JUMP JUMPDEST PUSH0 PUSH1 0x20 DUP3 ADD SWAP1 POP DUP2 DUP2 SUB PUSH0 DUP4 ADD MSTORE PUSH2 0xA4C DUP2 PUSH2 0xA13 JUMP JUMPDEST SWAP1 POP SWAP2 SWAP1 POP JUMP JUMPDEST PUSH32 0x4E487B7100000000000000000000000000000000000000000000000000000000 PUSH0 MSTORE PUSH1 0x11 PUSH1 0x4 MSTORE PUSH1 0x24 PUSH0 REVERT JUMPDEST PUSH0 PUSH2 0xA8A DUP3 PUSH2 0x8D3 JUMP JUMPDEST SWAP2 POP PUSH2 0xA95 DUP4 PUSH2 0x8D3 JUMP JUMPDEST SWAP3 POP DUP3 DUP3 SUB SWAP1 POP DUP2 DUP2 GT ISZERO PUSH2 0xAAD JUMPI PUSH2 0xAAC PUSH2 0xA53 JUMP JUMPDEST JUMPDEST SWAP3 SWAP2 POP POP JUMP JUMPDEST PUSH0 PUSH2 0xABD DUP3 PUSH2 0x8D3 JUMP JUMPDEST SWAP2 POP PUSH2 0xAC8 DUP4 PUSH2 0x8D3 JUMP JUMPDEST SWAP3 POP DUP3 DUP3 ADD SWAP1 POP DUP1 DUP3 GT ISZERO PUSH2 0xAE0 JUMPI PUSH2 0xADF PUSH2 0xA53 JUMP JUMPDEST JUMPDEST SWAP3 SWAP2 POP POP JUMP JUMPDEST PUSH32 0x4572726F6E656F7573206368616E676520696E2073746174652E2E2E20726576 PUSH0 DUP3 ADD MSTORE PUSH32 0x657274696E672E00000000000000000000000000000000000000000000000000 PUSH1 0x20 DUP3 ADD MSTORE POP JUMP JUMPDEST PUSH0 PUSH2 0xB40 PUSH1 0x27 DUP4 PUSH2 0x9B5 JUMP JUMPDEST SWAP2 POP PUSH2 0xB4B DUP3 PUSH2 0xAE6 JUMP JUMPDEST PUSH1 0x40 DUP3 ADD SWAP1 POP SWAP2 SWAP1 POP JUMP JUMPDEST PUSH0 PUSH1 0x20 DUP3 ADD SWAP1 POP DUP2 DUP2 SUB PUSH0 DUP4 ADD MSTORE PUSH2 0xB6D DUP2 PUSH2 0xB34 JUMP JUMPDEST SWAP1 POP SWAP2 SWAP1 POP JUMP JUMPDEST PUSH32 0x4E487B7100000000000000000000000000000000000000000000000000000000 PUSH0 MSTORE PUSH1 0x1 PUSH1 0x4 MSTORE PUSH1 0x24 PUSH0 REVERT JUMPDEST PUSH32 0x4E487B7100000000000000000000000000000000000000000000000000000000 PUSH0 MSTORE PUSH1 0x12 PUSH1 0x4 MSTORE PUSH1 0x24 PUSH0 REVERT JUMPDEST PUSH0 PUSH2 0xBD8 DUP3 PUSH2 0x8D3 JUMP JUMPDEST SWAP2 POP PUSH2 0xBE3 DUP4 PUSH2 0x8D3 JUMP JUMPDEST SWAP3 POP DUP3 PUSH2 0xBF3 JUMPI PUSH2 0xBF2 PUSH2 0xBA1 JUMP JUMPDEST JUMPDEST DUP3 DUP3 DIV SWAP1 POP SWAP3 SWAP2 POP POP JUMP INVALID LOG2 PUSH5 0x6970667358 0x22 SLT KECCAK256 0xB4 SWAP7 0xCE 0xF MLOAD 0xC1 SLT 0xFB CALL ADD PUSH1 0x2 PUSH11 0x26B49D4011AFBAEB8553DF PUSH32 0xBAC73DAB99BE8664736F6C634300081A00330000000000000000000000000000 "
				},
				"gasEstimates": {
					"creation": {
						"codeDepositCost": "624800",
						"executionCost": "infinite",
						"totalCost": "infinite"
					},
					"external": {
						"balance()": "2513",
						"burnCharacters()": "infinite",
						"characters(uint256)": "infinite",
						"getBalance()": "2477",
						"getFiveStarCopies()": "2597",
						"getFourStarCopies()": "2531",
						"getFreeRoll()": "infinite",
						"getSixStarCopies()": "2530",
						"getThreeStarCopies()": "2574",
						"getTwoStarCopies()": "2509",
						"owner()": "2549",
						"roll(uint256)": "infinite"
					}
				},
				"methodIdentifiers": {
					"balance()": "b69ef8a8",
					"burnCharacters()": "fd1700eb",
					"characters(uint256)": "4810bc59",
					"getBalance()": "12065fe0",
					"getFiveStarCopies()": "3d8ef528",
					"getFourStarCopies()": "0f555bf7",
					"getFreeRoll()": "41a97a5b",
					"getSixStarCopies()": "7780fecb",
					"getThreeStarCopies()": "acc89bbe",
					"getTwoStarCopies()": "0de14c4d",
					"owner()": "8da5cb5b",
					"roll(uint256)": "1f7b4f30"
				}
			},
			"storageLayout": {
				"storage": [
					{
						"astId": 3,
						"contract": "contracts/Gacha.sol:Assessment",
						"label": "owner",
						"offset": 0,
						"slot": "0",
						"type": "t_address_payable"
					},
					{
						"astId": 5,
						"contract": "contracts/Gacha.sol:Assessment",
						"label": "balance",
						"offset": 0,
						"slot": "1",
						"type": "t_uint256"
					},
					{
						"astId": 9,
						"contract": "contracts/Gacha.sol:Assessment",
						"label": "characters",
						"offset": 0,
						"slot": "2",
						"type": "t_mapping(t_uint256,t_uint256)"
					}
				],
				"types": {
					"t_address_payable": {
						"encoding": "inplace",
						"label": "address payable",
						"numberOfBytes": "20"
					},
					"t_mapping(t_uint256,t_uint256)": {
						"encoding": "mapping",
						"key": "t_uint256",
						"label": "mapping(uint256 => uint256)",
						"numberOfBytes": "32",
						"value": "t_uint256"
					},
					"t_uint256": {
						"encoding": "inplace",
						"label": "uint256",
						"numberOfBytes": "32"
					}
				}
			},
			"userdoc": {
				"kind": "user",
				"methods": {},
				"version": 1
			}
		}
	}
}